:100000000C947C010C94A4010C94A4010C94A40104
:100010000C94A4010C94A4010C94A4010C94A401CC
:100020000C94A4010C94A4010C94A4010C94C81683
:100030000C94A4010C94A4010C94A4010C94A401AC
:100040000C947E160C94A4010C944C160C94261659
:100050000C94A4010C94A4010C94A4010C94A4018C
:100060000C94A4010C94A40100407A10F35A00A04F
:10007000724E18090010A5D4E80000E87648170071
:1000800000E40B54020000CA9A3B000000E1F505B1
:10009000000080969800000040420F000000A086FB
:1000A00001000000102700000000E803000000002D
:1000B0006400000000000A000000000001000000D1
:1000C00000002C76D888DC674F0823DFC1DFAE59EB
:1000D000E1B1B796E5E3E453C63AE651997696E87E
:1000E000E6C28426EB898C9B62ED407C6FFCEFBC02
:1000F0009C9F40F2BAA56FA5F490055A2AF75C932D
:100100006B6CF9676DC11BFCE0E40D47FEF520E662
:10011000B500D0ED902E0300943577050080841E45
:10012000080000204E0A000000C80C333333330FA0
:10013000986E12831141EF8D2114893BE65516CF3D
:10014000FEE6DB18D1844B381BF77C1D901DA4BB49
:10015000E424203284725E228100C9F124ECA1E5FE
:100160003D277374645F6D7367732F54696D650009
:100170006364373136366337346335353263333150
:10018000316662636332666535613762633238397E
:1001900000726F7373657269616C5F6D7367732F43
:1001A000546F706963496E666F0030616435316603
:1001B000383866633434383932663863313036382B
:1001C0003430373736343630303500726F737365FC
:1001D0007269616C5F6D7367732F4C6F67003131AB
:1001E00061626437333163323539333332363163E8
:1001F00064363138336264313264363239350072F4
:100200006F7373657269616C5F6D7367732F52658D
:100210007175657374506172616D0039663065394E
:100220003862646136353938313938366464663558
:100230003361666137613430653439007374645FEB
:100240006D7367732F4865616465720032313736AC
:1002500064656361656362636537386162633362F5
:100260003936656630343966616265640073656E7F
:10027000736F725F6D7367732F4A6F696E74537417
:1002800061746500333036366463643736613663D3
:1002900066616566353739626430663334313733C9
:1002A000653966640000000000240027002A000071
:1002B000000000250028002B0004040404040404AA
:1002C0000402020202020203030303030301020405
:1002D00008102040800102040810200102040810C8
:1002E00020000000080002010000030407000000D5
:1002F0000000000000009F1711241FBECFEFD8E0C0
:10030000DEBFCDBF12E0A0E0B1E0E6E6F1E402C05E
:1003100005900D92AA36B107D9F726E0AAE6B2E019
:1003200001C01D92AC37B207E1F711E0CCE7D1E094
:1003300004C02197FE010E94B01ECB37D107C9F738
:100340000E94D1180C94B1200C940000CF92DF923F
:10035000EF92FF92CF93DF93EC016A017B01E88972
:10036000F98982E08083C11481EED806E104F104AA
:10037000A1F060E079E08DE390E0A70196010E9492
:10038000931D2150310941095109569547953795DB
:100390002795211580E1380798F0E889F9891082BE
:1003A00060E874E88EE190E0A70196010E94931D39
:1003B000215031094109510956954795379527959F
:1003C000EC85FD853083EE85FF852083188EEC89D2
:1003D000FD8986E08083EA89FB8980818061808352
:1003E000EA89FB89808188608083EA89FB89808132
:1003F00080688083EA89FB8980818F7D8083DF919B
:10040000CF91FF90EF90DF90CF900895AF92BF9281
:10041000CF92DF92EF92FF920F931F93CF93DF93D0
:100420006C017B018B01040F151FEB015E01AE18FF
:10043000BF08C017D10759F06991D601ED91FC9121
:100440000190F081E02DC6010995892B79F7C5014E
:10045000DF91CF911F910F91FF90EF90DF90CF90A0
:10046000BF90AF900895FC01538D448D252F30E04F
:10047000842F90E0821B930B541710F0CF960895B1
:1004800001970895FC01918D828D981761F0A28DDE
:10049000AE0FBF2FB11D5D968C91928D9F5F9F73A4
:1004A000928F90E008958FEF9FEF0895FC01918D5A
:1004B000828D981731F0828DE80FF11D858D90E0C7
:1004C00008958FEF9FEF0895FC01918D228D892F64
:1004D00090E0805C9F4F821B91098F73992708954C
:1004E00088EA92E00E94640221E0892B09F420E06E
:1004F000822F089580E090E0892B29F00E947002FD
:1005000081110C9400000895FC01A48DA80FB92F4F
:10051000B11DA35ABF4F2C91848D90E001968F732B
:100520009927848FA689B7892C93A089B1898C914A
:10053000837080648C93938D848D981306C0028899
:10054000F389E02D80818F7D80830895EF92FF9263
:100550000F931F93CF93DF93EC0181E0888F9B8DE6
:100560008C8D98131AC0E889F989808185FF15C0A0
:100570009FB7F894EE89FF896083E889F9898081C3
:100580008370806480839FBF81E090E0DF91CF9192
:100590001F910F91FF90EF900895F62E0B8D10E0B4
:1005A0000F5F1F4F0F731127E02E8C8D8E110CC023
:1005B0000FB607FCFACFE889F989808185FFF5CF6E
:1005C000CE010E948402F1CFEB8DEC0FFD2FF11DC7
:1005D000E35AFF4FF0829FB7F8940B8FEA89FB89AB
:1005E00080818062CFCFCF93DF93EC01888D882309
:1005F000B9F0AA89BB89E889F9898C9185FD03C086
:10060000808186FD0DC00FB607FCF7CF8C9185FF6A
:10061000F2CF808185FFEDCFCE010E948402E9CF29
:10062000DF91CF91089590E0FC01EF51FD4F2491AF
:10063000FC01E353FD4F3491FC01E754FD4FE4917D
:10064000EE23C9F0222339F0233001F1A8F4213040
:1006500019F1223029F1F0E0EE0FFF1FE155FD4FB7
:10066000A591B4918FB7F894EC91611126C03095A3
:100670003E233C938FBF08952730A9F02830C9F05E
:10068000243049F7809180008F7D03C080918000E5
:100690008F7780938000DFCF84B58F7784BDDBCFE9
:1006A00084B58F7DFBCF8091B0008F778093B000B1
:1006B000D2CF8091B0008F7DF9CF3E2BDACF3FB7FC
:1006C000F8948091A4029091A502A091A602B09105
:1006D000A70226B5A89B05C02F3F19F00196A11DC2
:1006E000B11D3FBFBA2FA92F982F8827BC01CD017C
:1006F000620F711D811D911D42E0660F771F881FDB
:10070000991F4A95D1F708952FB7F8946091A002E8
:100710007091A1028091A2029091A3022FBF08952F
:10072000CF92DF92EF92FF92CF93DF93EC01603292
:1007300082E07807CCF5653B710514F064EB70E05E
:10074000898128E830E0281B310987FD3395220F85
:10075000331F220F331F6901330FEE08FF088A8110
:1007600028E532E0281B310987FD3395220F331F1E
:10077000220F331F032E000C440B550B2C193D097F
:100780004E095F09DB0177FF02C0B0E0A0E00E94E4
:10079000541D24EB30E040E050E00E942A1DC20EC0
:1007A000D31EE41EF51EB601E881EC3070F52981F8
:1007B00088E890E0821B910927FD9395880F991F87
:1007C000880F991F681779077CF02A8188E592E0E5
:1007D000821B910927FD9395880F991F880F991FF8
:1007E000681779070CF4CB010297880F991F4FB750
:1007F000F8942E2F30E0F901EE0FFF1FE20FF31FE8
:10080000E558FD4F928381834FBFDF91CF91FF90D9
:10081000EF90DF90CF900895CF93DF93DC018C9120
:100820008C3008F06DC0CB01FB01E353FD4F2491E8
:1008300087549D4FFC018491882399F090E0880FA4
:10084000991FFC01EB55FD4FC591D491FC01E15579
:10085000FD4F859194918FB7F894E881E22BE8835E
:100860008FBF8C91282F30E0F901EE0FFF1FE20FB0
:10087000F31FE558FD4F962F9F736081607C692BB5
:10088000608311961C92119712961C9212972CE07D
:10089000622F0E947C1E829FB001112430E020E074
:1008A000AB01420F531FFA01EE0FFF1FE40FF51FBC
:1008B000E558FD4F908196FD16C02F5F3F4F2C30BD
:1008C000310571F781110FC01092800082E0809392
:1008D00081001092850010928400B19A80916F007F
:1008E000826080936F00EC918E2F90E0FC01EE0F00
:1008F000FF1FE80FF91FE558FD4F8081806480835A
:100900008C91DF91CF9108958E549D4FFC01808191
:10091000089584E892E008958DE692E008958F5B53
:100920009F4FFC018081918108950F931F93CF9376
:10093000DF93CDB7DEB72A970FB6F894DEBF0FBEB0
:10094000CDBF8C0186E491E09A8389831B821C824F
:100950001D821E821F82188619861A86D801ED9183
:10096000FC910190F081E02DAE014F5F5F4F6AE096
:1009700070E0C80109950E948403F80160877187BF
:10098000828793872A960FB6F894DEBF0FBECDBF3D
:10099000DF91CF911F910F910895CF93DF9300D0F6
:1009A00000D01F92CDB7DEB72AE331E03A83298326
:1009B0006B835D834C83DC01ED91FC910190F081B0
:1009C000E02DAE014F5F5F4F67E070E009950F903B
:1009D0000F900F900F900F90DF91CF910895AF92ED
:1009E000BF92CF92DF92EF92FF920F931F93CF931C
:1009F000DF93643671054CF0FC01EE54FD4F20810D
:100A0000C12CD12C222309F462C0DA016B01EC0164
:100A1000BC016D5C7E4FED91FC910190F081E02D69
:100A2000CA0109958C017E0124EDE21A2EEFF20A2B
:100A30002FEFD7012C93FE01E35DFE4F2EEF2083B5
:100A400031968083319690833196890F809580838B
:100A50003196C0821696DC9245E050E030E020E00E
:100A6000C80107964817590730F46191260F311DC8
:100A70004F5F5F4FF7CF085F1F4F8C0F9D1FFC012B
:100A8000E45DFE4F209520830931B1E01B07A8F4F7
:100A900068015701C5018E199F0980179107BCF4A1
:100AA0008A819B81F50161915F01DC01ED91FC91EF
:100AB0000190F081E02D0995EDCF4AE951E063E026
:100AC000CE010E94CD04CC24CA94DD24DA94C60160
:100AD000DF91CF911F910F91FF90EF90DF90CF901A
:100AE000BF90AF900895CF92DF92EF92FF92DC011A
:100AF0001D921D921D921C921397FB0130E020E085
:100B0000419150E0022E02C0440F551F0A94E2F7B3
:100B1000052E000C660B770BCD90DD90ED90FC90D0
:100B200013974C295D296E297F294D935D936D9311
:100B30007C931397285F3F4F2032310509F7FF90D0
:100B4000EF90DF90CF900895FC0140835183128293
:100B5000138208958CE492E008958CE392E0089566
:100B60004F925F926F927F928F929F92AF92BF92BD
:100B7000EF92FF920F931F93CF93DF9300D000D09B
:100B8000CDB7DEB77C018B01FB01808190E0B0E046
:100B9000A0E0F70182839383A483B583FB012181C5
:100BA000922BF70182839383A483B583FB01228177
:100BB000A22BF70182839383A483B583FB01238156
:100BC000B22BF70182839383A483B583FB018481D5
:100BD00090E0B0E0A0E0F70186839783A087B1871B
:100BE000FB012581922BF70186839783A087B1872C
:100BF000FB012681A22BF70186839783A087B1870B
:100C0000FB012781B22BF70186839783A087B187E9
:100C1000FB01808590E0B0E0A0E0F7018287938738
:100C2000A487B587FB012185922BF70182879387E3
:100C3000A487B587FB012285A22BF70182879387C2
:100C4000A487B587FB012385B22BF70182879387A1
:100C5000A487B587645F7F4FCE0101960E9473051C
:100C600089819A81AB81BC814C015D01F0E18F0EDD
:100C7000911CA11CB11CA801415F5F4FFA0120E14A
:100C800030E02901712C612C481459046A047B045A
:100C900028F4618161932F5F3F4FF3CFF801E80F94
:100CA000F91F1786F7015787468740960F900F90D8
:100CB0000F900F90DF91CF911F910F91FF90EF90C8
:100CC000BF90AF909F908F907F906F905F904F906C
:100CD0000895CF93DF93DC0116968D919C91179721
:100CE000FB0116964D915C91179714962D913C91AE
:100CF000159745395105CCF46491240F351FE9014E
:100D0000688316962D913C91179731961496CD9144
:100D1000DC911597C20FD31F48812F5F3F4F179665
:100D20003C932E9316974111DCCF16962D913C9152
:100D300017972539310534F022E030E019963C93BD
:100D40002E93189714962D913C91820F931FDF914B
:100D5000CF9108950C94690641110C946906CB015A
:100D600008958BE192E008958FEF91E008958EED64
:100D700091E008958BEC91E008954F925F926F920D
:100D80007F928F929F92AF92BF92EF92FF920F93BA
:100D90001F93CF93DF9300D000D0CDB7DEB77C0197
:100DA0008B01FB018191BF01F7018283CE01019686
:100DB0000E94730589819A81AB81BC814C015D01E0
:100DC000F5E08F0E911CA11CB11CA8014C5F5F4F78
:100DD000FA0125E030E02901712C612C48145904F6
:100DE0006A047B0428F4618161932F5F3F4FF3CF46
:100DF000F801E80FF91F1482F70154834383059625
:100E00000F900F900F900F90DF91CF911F910F9146
:100E1000FF90EF90BF90AF909F908F907F906F90DA
:100E20005F904F9008958AEA91E0089581E991E0FA
:100E300008954F925F926F927F928F929F92AF929E
:100E4000BF92CF92DF92EF92FF920F931F93CF93B7
:100E5000DF93CDB7DEB72C970FB6F894DEBF0FBE89
:100E6000CDBF7C018B01DB018C9190E0F701938376
:100E7000828311962C91922B938382836E5F7F4F96
:100E8000CE0101960E94730589809A80AB80BC8058
:100E900024013501F6E04F0E511C611C711C9801B4
:100EA0002B5F3F4FF90186E090E0AC0170E060E01D
:100EB000441555056605770520F441814193019657
:100EC000F4CFB4016A5F7F4FF801E80DF91D158278
:100ED000D70115963C932E931497600F711FCE0186
:100EE00005960E947305BAE08B0E911C4D805E80C2
:100EF0006F807884C401092C000CAA0BBB0B5C0129
:100F00006D01A40CB51CC61CD71CF801E80DF91D19
:100F1000AF01401B510B70E060E04A155B056C05AA
:100F20007D0538F42191AF0142505109DA012C932B
:100F3000EFCF480C591CB801640D751DFB013197AA
:100F40001082C4010197800F911FF7019783868358
:100F5000CE0109960E94730592012C5F3F4F898450
:100F60009A84AB84BC84A901032E000C660B770B1A
:100F7000480D591D6A1D7B1DF801E20FF31FCF01BB
:100F8000801B910BB0E0A0E084179507A607B70778
:100F900028F48191DF0112978C93F1CFC901880D5C
:100FA000991DF801E80FF91FDF0111971C922150DC
:100FB0003109020F131FD70119961C930E9318972E
:100FC0002181428150E070E060E0BA01552744275A
:100FD000522B2081422B2381722BF70142875387AA
:100FE0006487758704962C960FB6F894DEBF0FBE03
:100FF000CDBFDF91CF911F910F91FF90EF90DF90C8
:10100000CF90BF90AF909F908F907F906F905F90A8
:101010004F90089580E791E0089582E691E0089569
:10102000FC01DB014C9150E070E060E042835383AF
:101030006483758311968C911197582B4283538347
:101040006483758312968C911297682B4283538325
:101050006483758313968C911397782B4283538303
:101060006483758314964C91149750E070E060E0AF
:10107000468357836087718715968C911597582BF7
:10108000468357836087718716968C911697682BD5
:10109000468357836087718717968C91782B468398
:1010A00057836087718788E090E00895DC01FB0139
:1010B00012968C911297808313968C91139781834B
:1010C00014968C911497828315968C91159783832F
:1010D00016968C911697848317968C911797858313
:1010E00018968C911897868319968C91878388E03F
:1010F00090E00895CF92DF92EF92FF920F931F93AB
:10110000FC01DB01C3800C2D10E030E020E045E065
:1011100036952795179507954A95D1F70D931D9309
:101120002D933C9313978481C82ED12CF12CE12C64
:1011300053E0CC0CDD1CEE1CFF1C5A95D1F7C02AE5
:10114000D12AE22AF32ACD92DD92ED92FC921397F6
:101150008581082F10E030E020E06BE0000F111FC8
:10116000221F331F6A95D1F70C291D292E293F29EB
:101170000D931D932D933C931397468150E070E09F
:1011800060E083E1440F551F661F771F8A95D1F7F2
:101190004427552768777727042B152B262B372BC9
:1011A0000D931D932D933C931397478150E070E06E
:1011B00060E094E0440F551F661F771F9A95D1F7A2
:1011C000407F577066277727C680D12CF12CE12C01
:1011D00084E0F694E794D794C7948A95D1F74C2984
:1011E0005D296E297F294115510561057105A1F021
:1011F000405853406109710997E1440F551F661F1C
:10120000771F9A95D1F7402B512B622B732B4D935F
:101210005D936D937C931397478150E070E060E09D
:10122000742F66275527442744275527662770784B
:101230000D911D912D913C911397402B512B622BB9
:10124000732B4D935D936D937C93139788E090E09F
:101250001F910F91FF90EF90DF90CF9008958F92A4
:101260009F92AF92BF92CF92DF92EF92FF92CF9375
:10127000DF93EC014A015B01DB01CA0147E1B5954F
:10128000A795979587954A95D1F79927AA27BB27C0
:101290000097A105B10521F080589C4FAF4FBF4F7B
:1012A000188219821A82B501A40125E0440F551F46
:1012B000661F771F2A95D1F74B83B501A40133E050
:1012C00075956795579547953A95D1F74C83B50134
:1012D000A401EBE07595679557954795EA95D1F789
:1012E0004D83B501A401F3E1759567955795479531
:1012F000FA95D1F74F706C017D0124E0CC0CDD1C18
:10130000EE1CFF1C2A95D1F74C294E836C017D0100
:1013100034E0F594E794D794C7943A95D1F720E058
:1013200030E0A901C501B4010E94431C87FD0EC035
:10133000CF8288E090E0DF91CF91FF90EF90DF9037
:10134000CF90BF90AF909F908F9008958C2D806824
:101350008F83EFCF0F931F93CF93DF93EC0188819F
:101360009981009759F02A813B812617370730F081
:1013700081E0DF91CF911F910F9108958B016F5FF5
:101380007F4F0E94DB1F009759F0998388831B834E
:101390000A832C813D81232B59F7FC011082E8CF71
:1013A00080E0E7CFFC01848195810C94521FCF939C
:1013B000DF93EC010E94D209CE01DF91CF910C9412
:1013C000521F4F925F926F927F928F929F92AF9235
:1013D000BF92DF92EF92FF920F931F93CF93DF9311
:1013E000CDB7DEB72C970FB6F894DEBF0FBECDBFDA
:1013F0007C01DC015896ED91FC91A080B1801886AB
:101400001F821A8619861C861B86A114B104E9F076
:10141000F50101900020E9F731978F010A191B09A6
:10142000B801CE0107960E94AA092F813885811143
:101430004BC02115310519F0C9010E94521F1886B1
:101440001F821C861B861A8619861A8219821C82A4
:101450001B821E821D8264E070E0CE0101960E9414
:10146000AA0929813A81811136C02115310519F067
:10147000C9010E94521F1A8219821E821D821C827B
:101480001B82D7015896ED91FC914081518161E01A
:101490008AE993E00E94CD042B853C858D819E8155
:1014A00009811A812817390791F58F81988500974E
:1014B000E1F00115110509F032C1232B09F433C104
:1014C000DC018C9190E01FC01C870B87B501C9011E
:1014D0000E94AA20BACF84E090E09E838D8363EDC2
:1014E00071E0C9010E94AA20CCCFDD24D39401155C
:1014F0001105A1F0232B09F416C1F801808190E0B9
:10150000919581959109DD24D394892B09F0D12CF3
:101510000115110519F0C8010E94521F8F8198858D
:10152000009711F00E94521FF70102A113A126EEAD
:101530003EE245E652E4D80114966D917D918D917D
:101540009C9117970E946C1C4B015C01DD2009F4F3
:10155000EDC026EE3EE245E652E4F801608171817D
:10156000828193810E946C1C20E030E044EB52E4C5
:101570000E94C51D609304017093050180930601CC
:101580009093070120E030E044EB52E4C501B40140
:101590000E94C51D609308017093090180930A01A0
:1015A00090930B0126EE3EE245E652E4D8011896F0
:1015B0006D917D918D919C911B970E946C1C20E0F8
:1015C00030E044EB52E40E94C51D60930C0170931F
:1015D0000D0180930E0190930F0126EE3EE245E649
:1015E00052E4F80164857585868597850E946C1C98
:1015F0009B01AC0160E070E084EB92E40E94C41DAA
:101600006093140170931501809316019093170154
:1016100048ED51E061E08AE993E00E94CD0484E066
:10162000A82E81E0B82E98E1892E91E0992E7501BF
:10163000D7016D917D918D919D917D010AE612E01A
:1016400023E049E00E94EE19A80161E08AE993E0F5
:101650000E94CD048E149F0459F7F50141905190DA
:10166000619071905F0120E030E0A901C301B201F7
:101670000E94431C87FDC9C020E030E044E353E4EE
:10168000C301B2010E94671E18160CF4BEC0AE144E
:10169000BF0419F760910401709105018091060162
:1016A000909107010E94311E87E993E00E94900308
:1016B000609108017091090180910A0190910B01DC
:1016C0000E94311E84E993E00E94900360910C0116
:1016D00070910D0180910E0190910F010E94311EB9
:1016E00081E993E00E9490036091100170911101D3
:1016F00080911201909113010E94311E8EE893E0B7
:101700000E9490036091140170911501809116015F
:10171000909117010E94311E8BE893E05EC0B801E2
:101720000E94A120F0CEDD24D394F2CE20E030E060
:10173000A9010E94671E181624F0B7FAB094B7F8F2
:10174000B0948092000190920101A0920201B092A7
:1017500003014CED51E061E08AE993E00E94CD0481
:10176000609100017091010180910201909103014B
:101770000AE612E023E049E00E94EE19A80161E0C8
:101780008AE993E00E94CD048090000190900101CD
:10179000A0900201B090030120E030E0A901C50152
:1017A000B4010E94671E87FD0AC020E030E044E3D8
:1017B00052E4C501B4010E94431C181644F444EEDF
:1017C00051E061E08AE993E00E94CD0408C0C501C0
:1017D000B4010E94311E88E893E00E9490032C9689
:1017E0000FB6F894DEBF0FBECDBFDF91CF911F9132
:1017F0000F91FF90EF90DF90BF90AF909F908F90F0
:101800007F906F905F904F90089541E052E0D9CF64
:101810002F923F924F925F926F927F928F929F9200
:10182000AF92BF92CF92DF92EF92FF920F931F93EE
:10183000CF93DF93CDB7DEB728970FB6F894DEBF0E
:101840000FBECDBF8C016B0102960E94B0057C01DA
:10185000F601E80FF91F808191818280912CB12CD3
:10186000A12C540199248824992A882A8381B82A92
:1018700024E0E20EF11CF80182899389A489B589DC
:1018800088159905AA05BB0560F4B401660F771F9A
:10189000808D918D0E94DB1FD80159969C938E9369
:1018A0005897F801828A938AA48AB58A412C512CD0
:1018B00032011801F6E12F0E311CF601EE0DFF1D6D
:1018C000D80152964D915D916D917C915597C701CC
:1018D00004967C01441655066606770608F04FC04C
:1018E000BF01CE0101960E94730589819A81AB8167
:1018F000BC818D839E83AF83B887A7010F2C000C1A
:10190000660B770B480F591F6A1F7B1FF601EE0D00
:10191000FF1D4F018C189D08B12CA12C8416950633
:10192000A606B70638F4B1909F0122503109D901BB
:10193000BC92EFCF8D819E818E0D9F1DF601E80F29
:10194000F91F31971082B1E0EB1AF108EC0CFD1C85
:10195000F801F78AE68A7C01C201880F991F008C82
:10196000F18DE02DE80FF91FD1018D919C919183AC
:101970008083BFEF4B1A5B0A6B0A7B0A9ECF808184
:1019800091818280912CB12CA12C5401992488241E
:10199000992A882A8381B82AF801828D938DA48D93
:1019A000B58D88159905AA05BB0570F4B401660FBD
:1019B000771F660F771F82A193A10E94DB1FD801BA
:1019C00093969C938E939297F801828E938EA48E19
:1019D000B58EB12CA12C412C512C32014801FEE1D5
:1019E0008F0E911CF601EE0DFF1DD8015A964D91F8
:1019F0005D916D917C915D9744165506660677065C
:101A0000D0F4B401CF010E947A08E80EF91EF80163
:101A1000A2A1B3A1AA0DBB1D84E0F40101900D9217
:101A20008A95E1F7FFEF4F1A5F0A6F0A7F0A24E0F9
:101A3000A20EB11CD7CF808191818280912CB12CD4
:101A4000A12C540199248824992A882A8381B82AB0
:101A500084E0E80EF11CF80184A195A1A6A1B7A12C
:101A600088159905AA05BB0570F4B401660F771FA8
:101A7000660F771F84A595A50E94DB1FD8019D9650
:101A80009C938E939C97F80184A295A2A6A2B7A2DC
:101A9000B12CA12C412C512C32014801F8E28F0EBF
:101AA000911CF601EE0DFF1DD80194964D915D91AC
:101AB0006D917C9197974416550666067706D0F48B
:101AC000B401CF010E947A08E80EF91EF801A4A51E
:101AD000B5A5AA0DBB1D84E0F40101900D928A9575
:101AE000E1F7FFEF4F1A5F0A6F0A7F0A24E0A20EA8
:101AF000B11CD7CF808191818280912CB12CA12CF7
:101B0000540199248824992A882A8381B82A84E058
:101B1000E80EF11CF80186A597A5A0A9B1A9881522
:101B20009905AA05BB0570F4B401660F771F660F0F
:101B3000771F86A997A90E94DB1FD801D7969C938F
:101B40008E93D697F80186A697A6A0AAB1AAB12C23
:101B5000A12C412C512C32014801F2E38F0E911C33
:101B6000F80186A597A5A0A9B1A9481659066A0645
:101B70007B06E0F4B401C6018E0D9F1D0E947A0819
:101B8000E80EF91EF801A6A9B7A9AA0DBB1D84E0AD
:101B9000F40101900D928A95E1F7FFEF4F1A5F0A69
:101BA0006F0A7F0A24E0A20EB11CDACFC701289683
:101BB0000FB6F894DEBF0FBECDBFDF91CF911F915E
:101BC0000F91FF90EF90DF90CF90BF90AF909F90DC
:101BD0008F907F906F905F904F903F902F900895DF
:101BE0000F931F93CF93DF93EC018C01095F1F4F7D
:101BF000C8010E94080CEF96E881F981C801DF91C5
:101C0000CF911F910F910994EF92FF920F931F9321
:101C1000CF93DF938C01EB01FC0182818883838168
:101C2000898384818A8385818B8386818C83878164
:101C30008D8380858E8381858F8382858887838548
:101C4000898784858A8785858B87A685B785FD01E9
:101C500001900020E9F731977F01EA1AFB0AA701FA
:101C600070E060E0CE010C960E94A405F801668544
:101C70007785A701CE0140960E949820C701409623
:101C8000DF91CF911F910F91FF90EF9008954F92A8
:101C90005F926F927F928F929F92AF92BF92CF92FC
:101CA000DF92EF92FF920F931F93CF93DF93EC019C
:101CB0006B0102960E94040E8C01F601E80FF91FD9
:101CC0008A8980838B8981838C8982838D898383B0
:101CD0000C5F1F4F412C512C3201F601E00FF11F18
:101CE0000C5F1F4F4601800E911E8A899B89AC892B
:101CF000BD89481659066A067B0650F55201AA0CA2
:101D0000BB1CA88DB98DAA0DBB1D8D919C91DC01CA
:101D10000D900020E9F711977D01E81AF90AA70153
:101D200070E060E0CF010E94A405888D998DA80E17
:101D3000B91EF50160817181A701C4010E9498203C
:101D40000E0D1F1DFFEF4F1A5F0A6F0A7F0AC5CFE6
:101D50008A8D80838B8D81838C8D82838D8D83830F
:101D6000F12CE12C812C912C5401F601E00FF11F94
:101D70008A8D9B8DAC8DBD8D88169906AA06BB06F3
:101D8000B0F4AAA1BBA1AE0DBF1D4D915D916D91A7
:101D90007C91CF010E942F09080F191F8FEF881A1D
:101DA000980AA80AB80AE4E0EE0EF11CDECF8CA176
:101DB00080838DA181838EA182838FA183830C5F19
:101DC0001F4FF12CE12C812C912C5401F601E00FD6
:101DD000F11F8CA19DA1AEA1BFA188169906AA06EC
:101DE000BB06B0F4ACA5BDA5AE0DBF1D4D915D9178
:101DF0006D917C91CF010E942F09080F191FFFEFF1
:101E00008F1A9F0AAF0ABF0A84E0E80EF11CDECFEA
:101E10008EA580838FA5818388A9828389A98383E6
:101E20000C5F1F4FF12CE12C812C912C54018EA5BD
:101E30009FA5A8A9B9A988169906AA06BB06C0F449
:101E4000EEA9FFA9EE0DFF1D4081518162817381D2
:101E5000C601800F911F0E942F09080F191FEFEF75
:101E60008E1A9E0AAE0ABE0AF4E0EF0EF11CDFCF16
:101E7000C801DF91CF911F910F91FF90EF90DF90FC
:101E8000CF90BF90AF909F908F907F906F905F901A
:101E90004F9008952F923F924F925F926F927F9250
:101EA0008F929F92AF92BF92CF92DF92EF92FF926A
:101EB0000F931F93CF93DF93CDB7DEB72E970FB657
:101EC000F894DEBF0FBECDBF8C016B01DB018D909E
:101ED0009D90AD90BC90FC0182819381A481B581DD
:101EE00088159905AA05BB0570F4B401660F771F24
:101EF000660F771F828593850E94DB1FD8011B9692
:101F00009C938E931A97F80182829382A482B58261
:101F1000C60140E050E0BA01A4E0EA2EF12C98019D
:101F20002A5F3F4FDC011596EC91159716964C9061
:101F30001697512C712C612C3201552444245E2AB1
:101F40001496EC9114974E2A1796EC917E2AD7019D
:101F50001701E4E02E0E311C71010496F801828015
:101F60009380A480B580481559056A057B05A8F4BF
:101F700046825782608671861497A284B384AA0D24
:101F8000BB1DE4E0BE2EF90101900D92BA94E1F779
:101F90004F5F5F4F6F4F7F4FC5CF84859585A68577
:101FA000B78584159505A605B70570F4B201660FCF
:101FB000771F660F771F848995890E94DB1FD801E0
:101FC00055969C938E935497F80144865586668661
:101FD0007786C601820D931D412C512C32011C01C4
:101FE0009801205F3F4FDC0111966C91119712967A
:101FF0008C901297912CB12CA12C540199248824F7
:10200000962A6C91862A13966C91B62AB4E0EB0E50
:10201000F11CF8014485558566857785441655067B
:1020200066067706C0F4808A918AA28AB38ABC01C8
:1020300062197309A489B589A60FB71F64E0F90175
:1020400001900D926A95E1F7BFEF4B1A5B0A6B0A9C
:102050007B0A0496C8CF86899789A08DB18D881593
:102060009905AA05BB0560F4B401660F771F848D3E
:10207000958D0E94DB1FD8015D969C938E935C9793
:10208000F801868A978AA08EB18E412C512C32019C
:102090001801FAE12F0E311CF80186899789A08D6D
:1020A000B18D481659066A067B0608F05CC0B60179
:1020B0006E0D7F1DCE0101960E94730597012C5F66
:1020C0003F4F3E872D8789809A80AB80BC80C901B5
:1020D000032E000CAA0BBB0BAC01BD01480D591D12
:1020E0006A1D7B1D49875A876B877C87F901EC0D38
:1020F000FD1D9F012C193D09B90190E080E0298563
:102100003A854B855C85621773078407950728F429
:102110002191DF0112972C93ECCFED84FE84E80C23
:10212000F91CF601EE0DFF1D319710828D859E85FD
:1021300001978C0D9D1DD8015B969C938E935A97A9
:10214000C201880F991F5C96ED91FC91E80FF91F71
:10215000D1018D919C9191838083BFEF4B1A5B0AD3
:102160006B0A7B0A99CFC7012E960FB6F894DEBF93
:102170000FBECDBFDF91CF911F910F91FF90EF90D8
:10218000DF90CF90BF90AF909F908F907F906F9097
:102190005F904F903F902F9008952F923F924F92D3
:1021A0005F926F927F928F929F92AF92BF92CF92E7
:1021B000DF92EF92FF920F931F93CF93DF93CDB7F0
:1021C000DEB7E0970FB6F894DEBF0FBECDBF8C012F
:1021D0000E9484032B013C01980129543D4F3E8FFE
:1021E0002D8FF90180819181A281B381A301920198
:1021F000281B390B4A0B5B0BDA01C901893F9A4254
:10220000A105B10510F035971082480148E5841A00
:102210004DEF940AD4018D919C91892B79F0F801AE
:10222000E554FD4F80819181A281B381841595058C
:10223000A605B70518F4F401118210829801205503
:102240003D4F3A8F298FA80144555D4F5C8F4B8FCE
:10225000180154E1250E311CC8018E549D4F9AA3DC
:1022600089A3D801A054BD4FB8A7AFA3F801E1548A
:10227000FD4FFAA7E9A75801F6E5AF1AFDEFBF0A2F
:102280002250310938A32F8FA80145545D4F5CA718
:102290004BA7D301C2014496A11DB11D8DA79EA7D6
:1022A000AFA7B8ABD80112968D919C91DC01ED914E
:1022B000FC910284F385E02D09959C0197FD03C3F1
:1022C000E98DFA8D80819181820F931F91838083A4
:1022D000D4014D915C91119747305105E1F4EF8D98
:1022E000F8A180819181AC014F5F5F4F51834083A2
:1022F000800F911FDC0154962C93F5018081918110
:10230000019791838083892B69F688E090E0D4015E
:102310008D939C93C7CF4115510509F03FC02F3FC6
:10232000310589F481E090E0F401918380832DA54B
:102330003EA54FA558A9ABA5BCA52D933D934D93A4
:102340005C931397AFCF0E948403641975098609C3
:102350009709663071058105910508F4A3CFF8014E
:10236000EE54FD4F10828EEF9FEFE0960FB6F8947B
:10237000DEBF0FBECDBFDF91CF911F910F91FF90B8
:10238000EF90DF90CF90BF90AF909F908F907F9015
:102390006F905F904F903F902F900895413051057E
:1023A00081F482E090E02E3F310571F11D921C9284
:1023B000E9A1FAA18081811175CFC8010E9495041D
:1023C00071CF4230510589F4D5012D933C93EF8DA7
:1023D000F8A11182108283E090E0D4018D939C9348
:1023E000E98DFA8D318320835DCF4330510581F42F
:1023F000322F2227D5018D919C911197280F391FDB
:102400002D933C9384E090E0F401918380834ACF44
:102410004430510571F460E071E00E94881E8F3FE6
:10242000910519F485E090E072CFF40111821082D9
:1024300039CF4530510571F4AB8DBC8D2D933C9354
:1024400086E090E0F40191838083A98DBA8D2D936D
:102450003C9328CF4630510591F4322F2227EB8D43
:10246000FC8D80819181280F391F3183208387E083
:1024700090E08D939C93F5018081918144CF483009
:10248000510509F00FCF1D921C9260E071E00E948F
:10249000881E8F3F910509F005CFAB8DBC8DED9166
:1024A000FC91309709F040C1C8010E94950482E276
:1024B00091E09A8389831C821B8289E192E09E834A
:1024C0008D8398878F839A8789871B861C861D86B4
:1024D0001E866801BCEBCB1ABDEFDB0A7801EAE887
:1024E000EE1AEDEFFE0A2EE2222E21E0322ED60168
:1024F000AD90BC90A114B10409F471C01A8A198A74
:10250000388A2F861E8A1D8A86E990E00E94B61EB0
:102510009C8B8B8BFC0110828B569F4FDC011C9295
:10252000F501858196819C838B83608171814281D5
:10253000CE010F960E94AC069E838D83D601ED914D
:10254000FC9183819481DC01ED91FC910480F58103
:10255000E02D0995BC01CE010F960E94690698876F
:102560008F83D601ED91FC9183819481DC01ED9103
:10257000FC910680F781E02D0995BC01CE010F96F4
:102580000E9469069A87898728E131E040E050E09F
:102590002B873C874D875E87D601ED91FC91618545
:1025A0007285D801ED91FC910190F081E02DAE0192
:1025B0004F5F5F4FC801099589899A894AE152E0C6
:1025C0008130910521F0029731F44EE252E063E050
:1025D000C8010E94CD04CE010F960E94D209B2E03C
:1025E000CB0ED11CEC14FD0409F081CF9EE2A92E84
:1025F00091E0B92EF701C080D180C114D10409F453
:1026000078C01A8A198AB88AAF861E8A1D8A86E916
:1026100090E00E94B61E9C8B8B8BDC011C928B562B
:102620009F4FFC011082D60112968D919C911397B9
:102630009C838B8314966D917C91159716964C9183
:10264000CE010F960E94AC069E838D83F701808198
:102650009181DC01ED91FC910480F581E02D0995DB
:10266000BC01CE010F960E94690698878F83F701FF
:1026700080819181DC01ED91FC910680F781E02D54
:102680000995BC01CE010F960E9469069A87898739
:1026900028E131E040E050E02B873C874D875E87A2
:1026A000D801ED91FC91C080D180F70180819181AA
:1026B000DC01ED91FC910280F381E02D0995AE01E2
:1026C0004F5F5F4FBC01C801F601099589899A895E
:1026D0004AE152E08130910521F0029731F44EE257
:1026E00052E063E0C8010E94CD04CE010F960E9423
:1026F000D209F2E0EF0EF11C8E149F0409F07ACF9C
:10270000F801EE54FD4F81E0808331964082518282
:1027100062827382AD8DBE8D4D925D926D927C9280
:1027200013978FEF9FEF21CEEA30F10509F0A3C098
:1027300086E491E09A8389831B821C821D821E821B
:102740001F82188619861A860E948403F801C084A5
:10275000D184E284F3849B01AC012C193D094E091C
:102760005F0969017A01B101CE0101960E9410084A
:10277000C701B60128EE33E040E050E00E94931D0F
:1027800069017A019B01AC018B819C81AD81BE8185
:102790008C0D9D1DAE1DBF1D8B839C83AD83BE83A1
:1027A00060E472E48FE090E00E946C1ECF80D884D9
:1027B000E984FA84DC01CB018C0D9D1DAE1DBF1D8B
:1027C0008F839887A987BA870E948403CF80D88493
:1027D000E984FA8436E3D31A35E6E30A34ECF30AE3
:1027E00028EE33E040E050E00E94931D2BA33CA371
:1027F0004DA35EA39B01AC0160E472E48FE090E026
:102800000E946C1EA7019601261B370B480B590B23
:10281000CA01B901CB80DC80ED80FE8031E0C31AB3
:10282000D108E108F1082BA13CA14DA15EA1C21A7B
:10283000D30AE40AF50A20E03AEC4AE95BE30E9495
:10284000931D2C0D3D1D4E1D5F1DD8011C962D9313
:102850003D934D935C931F97F801608B718B828B36
:10286000938B0E948403AD8DBE8D6D937D938D936C
:102870009C93139717CDE630F10551F4B1018FA168
:1028800098A50E944A0F81E0E9A5FAA580830ACDA8
:10289000EB30F10521F4A9A1BAA11C9203CDE952B4
:1028A000FF4FEE0FFF1FE00FF11F80819181009716
:1028B00009F4F8CCDC01ED91FC910190F081E02D60
:1028C000B1010995EFCCF801EE54FD4F80818823CA
:1028D00001F17801BDE4EB1ABDEFFB0AF70180813D
:1028E0009181A281B381A3019201281B390B4A0B6C
:1028F0005B0BDA01C901853C9940A105B10548F09F
:10290000C8010E949504D7014D925D926D927C9210
:10291000139790E080E029CD4F925F926F927F9263
:102920008F929F92AF92BF92CF92DF92EF92FF92DF
:102930000F931F93CF93DF93EC017B018A81FB01FF
:1029400080838B8181838C8182838D818383349684
:10295000412C512C320104E010E09F012F5F3F4FCA
:10296000CF010296DF011396A8010C5F1F4F8A80EA
:102970009B80AC80BD80481459046A047B04C8F471
:10298000AA85BB85A40FB51F14974C9111962C9165
:10299000119712969C91129713968C9140832183E4
:1029A000928383838FEF481A580A680A780A34960C
:1029B000D4CF4C8540834D85F90140832E85FC01A1
:1029C00020838F858C93F701E00FF11F412C512C50
:1029D0003201AF019F012F5F3F4FCF010296DF0110
:1029E00013960C5F1F4F8C849D84AE84BF84481463
:1029F00059046A047B04D8F4CF01841B950BAC897D
:102A0000BD89A80FB91F3C9111962C911197129670
:102A10009C91129713968C913083218392838383A8
:102A20008FEF481A580A680A780A3496D3CF4E892D
:102A300040834F89F9014083288DFC012083898DD3
:102A40008C93412C512C32018E899F89A88DB98D90
:102A5000481659066A067B0680F55201AA0CBB1C73
:102A6000EC8DFD8DEA0DFB1DA081B181FD01019072
:102A70000020E9F731976F01CA1ADB0AA60170E05E
:102A800060E0C701800F911F0E94A4050C5F1F4FDB
:102A90008C8D9D8DA80EB91EF50160817181A601F6
:102AA000C701800F911F0E9498200C0D1D1DFFEF84
:102AB0004F1A5F0A6F0A7F0AC7CFC801DF91CF9113
:102AC0001F910F91FF90EF90DF90CF90BF90AF904C
:102AD0009F908F907F906F905F904F900895EF92AE
:102AE000FF920F931F93CF93DF938C017B01DC0147
:102AF00012962C911297FB012193CF011396ED9121
:102B0000FC91EF0109900020E9F72197CE1BDF0B24
:102B1000AE0170E060E00E94A405D80113966D91AB
:102B20007C91AE01C70105960E949820CE010596C2
:102B3000DF91CF911F910F91FF90EF900895CF9269
:102B4000DF92EF92FF920F931F93CF93DF936C016D
:102B5000EB01DC0112968C911297888313968C916D
:102B6000139789831496ED91FC91DF010D9000205D
:102B7000E9F78D01015011090E1B1F0BA80170E030
:102B800060E0CE0102960E94A405F6016481758181
:102B9000A801CE0106960E949820C8010696F6016B
:102BA000A681B781FD0101900020E9F731977F01EF
:102BB000EA1AFB0AA70170E060E08C0F9D1F0E94DB
:102BC000A405065F1F4FD60116966D917C91A70153
:102BD000CE01800F911F0E9498200E0D1F1DF6013F
:102BE000A085B185FD0101900020E9F731977F01B3
:102BF000EA1AFB0AA70170E060E0CE01800F911F86
:102C00000E94A4050C5F1F4FD60118966D917C9110
:102C1000A701CE01800F911F0E949820C701800F4D
:102C2000911FF6016285438534852585C80FD91F1C
:102C3000688349833A832B830496DF91CF911F9158
:102C40000F91FF90EF90DF90CF9008951F920F9219
:102C50000FB60F9211242F933F934F935F936F936F
:102C60007F938F939F93AF93BF93EF93FF9388EAE4
:102C700092E00E948402FF91EF91BF91AF919F91EA
:102C80008F917F916F915F914F913F912F910F9015
:102C90000FBE0F901F9018951F920F920FB60F92B4
:102CA00011242F938F939F93EF93FF93E091B8029A
:102CB000F091B9028081E091BE02F091BF0282FDE5
:102CC0001BC090818091C1028F5F8F732091C202DF
:102CD000821741F0E091C102F0E0E855FD4F958F79
:102CE0008093C102FF91EF919F918F912F910F904F
:102CF0000FBE0F901F9018958081F4CF1F920F92F6
:102D00000FB60F9211242F933F938F939F93AF93FE
:102D1000BF938091A0029091A102A091A202B091D4
:102D2000A30230919F0223E0230F2D3758F501961F
:102D3000A11DB11D20939F028093A0029093A10238
:102D4000A093A202B093A3028091A4029091A50245
:102D5000A091A602B091A7020196A11DB11D80937A
:102D6000A4029093A502A093A602B093A702BF91DC
:102D7000AF919F918F913F912F910F900FBE0F9028
:102D80001F90189526E8230F0296A11DB11DD2CFE2
:102D90001F920F920FB60F9211242F933F934F93D0
:102DA0005F936F937F938F939F93AF93BF93CF93D3
:102DB000DF93EF93FF9380917902C0917A02D0E084
:102DC00087FF24C0109285001092840080917902C0
:102DD0008F5F8093790280917902082E000C990B05
:102DE0008C179D0724F4809179028C30C4F1809176
:102DF000840090918500049680349C4908F47AC040
:102E00008091840090918500049676C0809179022B
:102E1000082E000C990B8C179D07C4F6E0917902DF
:102E20008E2FEE0F990BFC01EE0FFF1FE80FF91F1D
:102E3000E558FD4F808186FFC9CFE09179028E2F42
:102E4000EE0F990BFC01EE0FFF1FE80FF91FE5587D
:102E5000FD4F808160E08F730E941303B7CF2091F4
:102E6000840030918500E09179028E2FEE0F990B4E
:102E7000FC01EE0FFF1FE80FF91FE558FD4F8181A0
:102E80009281820F931F9093890080938800E09134
:102E900079028E2FEE0F990BFC01EE0FFF1FE80F4A
:102EA000F91FE558FD4F808186FF11C0E09179023E
:102EB0008E2FEE0F990BFC01EE0FFF1FE80FF91F8D
:102EC000E558FD4F808161E08F730E941303FF91ED
:102ED000EF91DF91CF91BF91AF919F918F917F91B2
:102EE0006F915F914F913F912F910F900FBE0F9077
:102EF0001F90189580E49CE9909389008093880046
:102F00008FEF80937902E3CFFC0190917A029C309D
:102F100098F481E0890F80937A029083892F90E062
:102F2000FC01EE0FFF1FE80FF91FE558FD4F88EB7E
:102F30009BE09283818308958FEF808308951092A0
:102F4000AB021092AA0288EE93E0A0E0B0E080937A
:102F5000AC029093AD02A093AE02B093AF0282E5B3
:102F600091E09093A9028093A80285EC90E0909361
:102F7000B5028093B40284EC90E09093B702809302
:102F8000B60280EC90E09093B9028093B80281EC95
:102F900090E09093BB028093BA0282EC90E0909311
:102FA000BD028093BC0286EC90E09093BF028093B8
:102FB000BE021092C1021092C2021092C30210927D
:102FC000C40288E891E090939B0380939A0388EA77
:102FD00092E090939D0380939C0380E091EEA0E0AB
:102FE000B0E080939E0390939F03A093A003B093BF
:102FF000A10310924C068CE791E090935B068093BE
:103000005A06109270061092710610927206109273
:1030100073061092770610927606EEEDF5E01192A7
:10302000119286E0E031F807D1F7E0E1F6E0119285
:10303000119286E0E234F807D1F7EEEAF3E086EC8D
:1030400094E011928E179F07E1F7E6ECF4E01192FD
:1030500085E0EE3DF807D9F710925C0610925D0608
:1030600010925E0610925F0610926506109264063A
:103070001092660610926706109268061092690612
:1030800010926F0610926E0687E993E00E948417F3
:1030900084E993E00E94841781E993E00E948417F9
:1030A0008EE893E00E9484178BE893E00E948417D7
:1030B00088E893E00E94841782E991E090934603A8
:1030C0008093450380E791E090934D0380934C03F8
:1030D00084E691E090934F0380934E031092500347
:1030E0001092510310925203109253031092540302
:1030F00010925503109256031092570310925803E2
:103100001092590310925A0310925B0389E192E0E6
:1031100090935D0380935C0310925E0310925F03B3
:103120001092600310926103109265031092640381
:10313000109266031092670310926803109269035D
:1031400010926F0310926E0310927003109271032D
:103150001092720310927303109279031092780305
:1031600010927A0310927B0310927C0310927D03DD
:10317000109283031092820381EE99E0909385036D
:103180008093840381E090E090938703809386038B
:1031900082E492E090934A038093490310924B0398
:1031A0000895789484B5826084BD84B5816084BDBF
:1031B00085B5826085BD85B5816085BD80916E00D5
:1031C000816080936E001092810080918100826006
:1031D0008093810080918100816080938100809143
:1031E00080008160809380008091B1008460809332
:1031F000B1008091B00081608093B00080917A002E
:10320000846080937A0080917A00826080937A0053
:1032100080917A00816080937A0080917A00806842
:1032200080937A001092C10040EC52E160E070E0BF
:1032300088EA92E00E94A60140919E0350919F036C
:103240006091A0037091A10380919C0390919D03D4
:103250000E94A60110924306109242061092450663
:1032600010924406109249061092480610924706A2
:1032700010924606E0E1F6E090E080E02191319185
:10328000232B09F0A5C0FC01EE0FFF1FE05FF94FF3
:1032900025E433E0318320838C599F4F909348037A
:1032A0008093470363E070E087E993E00E940C0499
:1032B00065E070E084E993E00E940C0466E070E051
:1032C00081E993E00E940C0469E070E08EE893E0ED
:1032D0000E940C046AE070E08BE893E00E940C040A
:1032E0006BE070E088E893E00E940C0460910401B8
:1032F0007091050180910601909107010E94311E95
:1033000087E993E00E9490036091080170910901A0
:1033100080910A0190910B010E94311E84E993E093
:103320000E94900360910C0170910D0180910E013B
:1033300090910F010E94311E81E993E00E94900359
:10334000609110017091110180911201909113010F
:103350000E94311E8EE893E00E9490036091140158
:103360007091150180911601909117010E94311EF4
:103370008BE893E00E94900360910001709101013D
:1033800080910201909103010E94311E88E893E030
:103390000E949003C0E0D0E08AE993E00E94CD1043
:1033A0000E945F036B017C010E945F036C197D0921
:1033B0008E099F09683E734081059105A8F3209707
:1033C00059F30E947002882339F30E940000E4CF71
:1033D00001968931910509F051CF64CFEF920F9397
:1033E0001F93CF93DF93E80134E047FD34E1042ECF
:1033F000000C550B57FF03C0519541955109E32E21
:10340000022F242FAE010E940C1ACE01DF91CF9122
:103410001F910F91EF900895A9E0B0E0E2E1FAE189
:103420000C94621D6A01F22EB02E102FFBE3AF2E1A
:10343000A01608F41BE31F5F012F27E0AE014F5FCA
:103440005F4F0E946B1BBC018981982F997091304E
:1034500009F43FC09BE2E1FC04C09E2D9170E0FCAA
:103460003AC05E2D5071E82FE87083FF46C084E0BB
:10347000911101C083E0EF2DE81B8F1508F0E0E00B
:10348000D6018E2F20E2552351F1992329F0D60140
:103490009C93C60101966C0196012D5F3F4FE2FEA1
:1034A00024C08EE4D6018C9391E411969C931197DD
:1034B00012968C93D9018E2F90E281111BC0E20FDE
:1034C000F32FF11D10828EEF9FEF2996ECE00C9404
:1034D0007E1D9DE2C6CF90E2C4CF2D938150811115
:1034E000FCCFCE0ED11CE0E0D0CF8EE6D6018C937F
:1034F00091E6DBCF9D938150E0CF482F447082FF4F
:103500003DC084E0911101C083E08F1510F4EF2DD0
:10351000E81BD6018E2F20E2552309F1992329F0CB
:10352000D6019C93C60101966C0196012D5F3F4F19
:10353000E2FE1BC089E4D6018C938EE411968C9335
:10354000119786E412968C93D9018E2F90E28823EE
:1035500009F4B5CF9D938150FACF2D9381508111FD
:10356000FCCFCE0ED11CE0E0D9CF89E6D6018C93FA
:103570008EE611968C93119786E6E4CF9B0177FF38
:1035800002C030E020E0A1E0B0E0911102C0B0E064
:10359000A0E0F9013196AE0FBF1F8B2C912CBB2000
:1035A00009F461C05401EFEFAE1ABE0AAA0DBB1DAB
:1035B000FA161B0619F014F04F2D4A1B511188C042
:1035C000E3FC59C07601A42FB0E2A1114FC0C40E94
:1035D000D11C992309F45BC040E0D6011196F60195
:1035E00090836D01552309F448C0012F060F9A817D
:1035F000582F507184FF03C0913309F40150101605
:103600000CF047C0093008F008E0EEE2FE2E5B0146
:10361000A01AB10885019194819491082F3F320737
:1036200029F4D601FC92F60131966F0162177307F7
:1036300094F1021713077CF5DB01A21BB30BAA243C
:10364000A394B12CAC0EBD1EAA0DBB1D11968C917E
:1036500021503109D601119628153905F4F0F601EB
:1036600080836D01DBCFB12CA12CA0CFF701B193EA
:103670007F01A150AACF9111B0CFD601942F50E372
:1036800002C05D9391509111FCCFC40ED11C40E05B
:10369000ACCF01E0BACF80E3DBCF6217730731F420
:1036A000963388F4953311F4552369F0F60180833D
:1036B000FD01842F90E2811108C0A40FB11D1C925E
:1036C00090E080E002CF81E3F1CF91938150F3CF7E
:1036D000911183CF8ACF283008F027E03327DA0111
:1036E000990F311D87FD916000966105710539F4D0
:1036F00032602E5F3D9330E32A95E1F708959F3FB6
:1037000030F080387105610509F03C5F3C5F3D9306
:10371000913008F08068911DDF93CF931F930F9332
:10372000FF92EF92192F987F9695E92F969596958F
:10373000E90FFF27EE53FF4F99273327EE24FF248D
:10374000A701E70105900894079428F4360FE71EB7
:10375000F81E491F511D660F771F881F991F069479
:10376000A1F70590079428F4E70EF81E491F561F8D
:10377000C11D770F881F991F661F0694A1F705903A
:10378000079428F4F80E491F561FC71FD11D880F34
:10379000991F661F771F0694A1F70590079420F4E0
:1037A000490F561FC71FD81F990F661F771F881F05
:1037B0000694A9F784911095177041F0D695C79596
:1037C00057954795F794E7941A95C1F7E8E6F0E026
:1037D00068941590159135916591959105907FE2CA
:1037E0007395E118F10A430B560BC90BD009C0F7CA
:1037F000E10CF11E431F561FC91FD01D7EF470330C
:1038000011F48A95E6CFE894015030F0080F0AF4DD
:103810000027021708F4202F2395022F7A3328F06F
:1038200079E37D932A95E9F710C07D932A9589F66F
:10383000069497956795379517951794E118F10AAF
:10384000430B560BC90BD00998F023957E917395C5
:103850007A3308F070E37C932013B8F77E9170619F
:103860007D9330F0839571E37D9370E32A95E1F7C2
:103870001124EF90FF900F911F91CF91DF91992725
:1038800087FD909508950E94481C08F481E00895F2
:10389000990F0008550FAA0BE0E8FEEF1616170661
:1038A000E807F907C0F012161306E407F50798F0C9
:1038B000621B730B840B950B39F40A2661F0232BE2
:1038C000242B252B21F408950A2609F4A140A6955E
:1038D0008FEF811D811D08950E947F1C0C94F01CA8
:1038E0000E94E21C38F00E94E91C20F0952311F0A0
:1038F0000C94D91C0C94DF1C11240C94241D0E94E0
:10390000011D70F3959FC1F3950F50E0551F629F05
:10391000F001729FBB27F00DB11D639FAA27F00D28
:10392000B11DAA1F649F6627B00DA11D661F829F4F
:103930002227B00DA11D621F739FB00DA11D621F34
:10394000839FA00D611D221F749F3327A00D611D51
:10395000231F849F600D211D822F762F6A2F112433
:103960009F5750409AF0F1F088234AF0EE0FFF1F66
:10397000BB1F661F771F881F91505040A9F79E3FBD
:10398000510580F00C94D91C0C94241D5F3FE4F386
:10399000983ED4F3869577956795B795F795E79513
:1039A0009F5FC1F7FE2B880F911D9695879597F91C
:1039B000089597F99F6780E870E060E008959FEFB1
:1039C00080EC089500240A941616170618060906B6
:1039D000089500240A941216130614060506089585
:1039E000092E0394000C11F4882352F0BB0F40F40D
:1039F000BF2B11F460FF04C06F5F7F4F8F4F9F4F4D
:103A0000089557FD9058440F551F59F05F3F71F0CE
:103A10004795880F97FB991F61F09F3F79F0879535
:103A20000895121613061406551FF2CF4695F1DFBE
:103A300008C0161617061806991FF1CF869571054E
:103A4000610508940895E894BB2766277727CB0182
:103A500097F90895052E97FB1EF400940E94411DCE
:103A600057FD07D00E94931D07FC03D04EF40C9421
:103A7000411D50954095309521953F4F4F4F5F4FD9
:103A8000089590958095709561957F4F8F4F9F4FCA
:103A900008950E94B51DA59F900DB49F900DA49F01
:103AA000800D911D11240895B7FF0C94491D0E94AB
:103AB000491D821B930B08952F923F924F925F9264
:103AC0006F927F928F929F92AF92BF92CF92DF922E
:103AD000EF92FF920F931F93CF93DF93CDB7DEB793
:103AE000CA1BDB0B0FB6F894DEBF0FBECDBF099427
:103AF0002A88398848885F846E847D848C849B847E
:103B0000AA84B984C884DF80EE80FD800C811B818B
:103B1000AA81B981CE0FD11D0FB6F894DEBF0FBEBA
:103B2000CDBFED010895A1E21A2EAA1BBB1BFD011A
:103B30000DC0AA1FBB1FEE1FFF1FA217B307E4078C
:103B4000F50720F0A21BB30BE40BF50B661F771FE4
:103B5000881F991F1A9469F76095709580959095C4
:103B60009B01AC01BD01CF010895A29FB001B39F9D
:103B7000C001A39F700D811D1124911DB29F700D76
:103B8000811D1124911D08955058BB27AA270E941A
:103B9000DC1D0C94F01C0E94E21C38F00E94E91C11
:103BA00020F039F49F3F19F426F40C94DF1C0EF436
:103BB000E095E7FB0C94D91CE92F0E94011D58F3F6
:103BC000BA17620773078407950720F079F4A6F502
:103BD0000C94231D0EF4E0950B2EBA2FA02D0B0193
:103BE000B90190010C01CA01A0011124FF27591B42
:103BF00099F0593F50F4503E68F11A16F040A22F48
:103C0000232F342F4427585FF3CF469537952795B8
:103C1000A795F0405395C9F77EF41F16BA0B620BB7
:103C2000730B840BBAF09150A1F0FF0FBB1F661FFE
:103C3000771F881FC2F70EC0BA0F621F731F841F41
:103C400048F4879577956795B795F7959E3F08F067
:103C5000B0CF9395880F08F09927EE0F9795879529
:103C600008950E94381E6894B1110C94241D089583
:103C70000E94091D88F09F5798F0B92F9927B751D6
:103C8000B0F0E1F0660F771F881F991F1AF0BA9500
:103C9000C9F714C0B13091F00E94231DB1E008951E
:103CA0000C94231D672F782F8827B85F39F0B93F10
:103CB000CCF3869577956795B395D9F73EF49095B3
:103CC0008095709561957F4F8F4F9F4F08950E940B
:103CD000481C08F48FEF0895DB018F939F930E9497
:103CE000491DBF91AF91A29F800D911DA39F900D83
:103CF000B29F900D11240895991B79E004C0991F7B
:103D0000961708F0961B881F7A95C9F78095089535
:103D100097FB072E16F4009407D077FD09D00E9478
:103D20009C1E07FC05D03EF4909581959F4F089509
:103D3000709561957F4F0895AA1BBB1B51E107C089
:103D4000AA1FBB1FA617B70710F0A61BB70B881F2B
:103D5000991F5A95A9F780959095BC01CD010895BA
:103D6000EE0FFF1F0590F491E02D09940F931F9320
:103D7000CF93DF938230910510F482E090E0E091E0
:103D80007A06F0917B0630E020E0B0E0A0E03097CA
:103D900099F42115310509F44AC0281B390B243048
:103DA0003105D8F58A819B816115710589F1FB0187
:103DB00093838283FE0111C040815181028113816E
:103DC00048175907E0F04817590799F4109761F020
:103DD00012960C93129713961C933296CF01DF9193
:103DE000CF911F910F91089500937A0610937B064F
:103DF000F4CF2115310551F04217530738F0A901CE
:103E0000DB019A01BD01DF01F801C1CFEF01F9CF5C
:103E100090937B0680937A06CDCFFE01E20FF31FCD
:103E2000819391932250310939832883D7CF2091F0
:103E3000780630917906232B41F420911A013091B4
:103E40001B01309379062093780620911801309158
:103E500019012115310541F42DB73EB740911C01E0
:103E600050911D01241B350BE0917806F0917906E5
:103E7000E217F307A0F42E1B3F0B2817390778F041
:103E8000AC014E5F5F4F2417350748F04E0F5F1FA0
:103E90005093790640937806819391939FCFF0E0F9
:103EA000E0E09CCFCF93DF930097E9F0FC013297DD
:103EB00013821282A0917A06B0917B06ED0130E068
:103EC00020E01097A1F420813181820F931F20916F
:103ED0007806309179062817390709F061C0F09308
:103EE0007906E0937806DF91CF910895EA01CE1725
:103EF000DF07E8F54A815B819E0141155105B1F765
:103F0000E901FB83EA8349915991C40FD51FEC174E
:103F1000FD0761F4808191810296840F951FE9016C
:103F200099838883828193819B838A83F0E0E0E098
:103F300012968D919C9113970097B9F52D913C9114
:103F40001197CD010296820F931F20917806309130
:103F500079062817390739F6309751F510927B0604
:103F600010927A06B0937906A0937806BCCFD383DB
:103F7000C28340815181840F951FC817D90761F40E
:103F80004E5F5F4F88819981480F591F518340834D
:103F90008A819B81938382832115310509F0B0CFFB
:103FA000F0937B06E0937A069ECFFD01DC01C0CF43
:103FB00013821282D7CFB0E0A0E0E1EEFFE10C94D3
:103FC0005E1D8C01009751F4CB010E94B61E8C013E
:103FD000C801CDB7DEB7E0E10C947A1DFC01E60F15
:103FE000F71F9C0122503109E217F30708F49DC026
:103FF000D901CD91DC911197C617D70798F0C5303C
:10400000D10530F3CE0104978617970708F3C61B36
:10401000D70B2297C193D1936D937C93CF010E94CC
:10402000521FD6CF5B01AC1ABD0A4C018C0E9D1EEF
:10403000A0917A06B0917B06512C412CF12CE12CF9
:10404000109731F580917806909179068815990539
:1040500009F05CC04616570608F058C08091180158
:1040600090911901009741F48DB79EB740911C01C2
:1040700050911D01841B950BE817F90708F055C0F6
:10408000F0937906E0937806F90171836083A0CFFD
:104090008D919C91119712966C90129713967C902B
:1040A0001397A815B90559F56C0142E0C40ED11C4F
:1040B000CA14DB0420F1AC014A195B09DA0112963B
:1040C000159780F06282738251834083D9016D938A
:1040D0007C93E114F10471F0D7011396FC93EE93F5
:1040E000129776CF22968C0F9D1FF90191838083C2
:1040F000F301EFCFF0937B06E0937A0669CF481681
:10410000590608F42C017D01D3019ACFCB010E94FE
:10411000B61E7C01009749F0AE01B8010E949820BC
:10412000C8010E94521F870153CF10E000E050CF1A
:10413000FB01DC0102C001900D9241505040D8F7C4
:104140000895FB01DC018D91019080190110D9F3D4
:10415000990B0895FB01DC0101900D920020E1F71D
:064160000895F894FFCF62
:10416600000034420000B4420000B4420000B442F1
:104176000000B4420000B44200007C06800000004B
:1041860000009F1519071607130700000000AC066C
:10419600D209D709AA06000000006F15BD06BA06A7
:1041A600B70600000000560810080D080A080000AF
:1041B6000000A60206023302F3026402420256021D
:1041C60000000000040EB005AD05AA0500000000C1
:1041D600470E080C8C048904000000008C144A0F5A
:1041E600B406B10600000000EF04CD108404000000
:1041F6000000F00D8F048C0489044D6573736167AC
:10420600652066726F6D20646576696365206472E9
:104216006F707065643A206D657373616765206CB5
:104226006172676572207468616E20627566666584
:10423600722E00526576310061726D006772697088
:1042460070657200496E76616C69642047726970A8
:10425600706572204A6F696E742056616C756521AF
:1042660000496E76616C69642041726D204A6F69FF
:104276006E742056616C75652100466C617368200A
:1042860072656164206E6F7420696D706C00427592
:1042960066666572206F766572666C6F77207075DC
:1042A60062006D6F76655F67726F75702F66616B02
:1042B600655F636F6E74726F6C6C65725F6A6F694F
:0A42C6006E745F7374617465730019
:00000001FF
