:020000040000FA
:100000000C947C010C94A4010C94A4010C94A40104
:100010000C94A4010C94A4010C94A4010C94A401CC
:100020000C94A4010C94A4010C94A4010C94F1155B
:100030000C94A4010C94A4010C94A4010C94A401AC
:100040000C94A7150C94A4010C9475150C944F15E1
:100050000C94A4010C94A4010C94A4010C94A4018C
:100060000C94A4010C94A40100407A10F35A00A04F
:10007000724E18090010A5D4E80000E87648170071
:1000800000E40B54020000CA9A3B000000E1F505B1
:10009000000080969800000040420F000000A086FB
:1000A00001000000102700000000E803000000002D
:1000B0006400000000000A000000000001000000D1
:1000C00000002C76D888DC674F0823DFC1DFAE59EB
:1000D000E1B1B796E5E3E453C63AE651997696E87E
:1000E000E6C28426EB898C9B62ED407C6FFCEFBC02
:1000F0009C9F40F2BAA56FA5F490055A2AF75C932D
:100100006B6CF9676DC11BFCE0E40D47FEF520E662
:10011000B500D0ED902E0300943577050080841E45
:10012000080000204E0A000000C80C333333330FA0
:10013000986E12831141EF8D2114893BE65516CF3D
:10014000FEE6DB18D1844B381BF77C1D901DA4BB49
:10015000E424203284725E228100C9F124ECA1E5FE
:100160003D277374645F6D7367732F54696D650009
:100170006364373136366337346335353263333150
:10018000316662636332666535613762633238397E
:1001900000726F7373657269616C5F6D7367732F43
:1001A000546F706963496E666F0030616435316603
:1001B000383866633434383932663863313036382B
:1001C0003430373736343630303500726F737365FC
:1001D0007269616C5F6D7367732F4C6F67003131AB
:1001E00061626437333163323539333332363163E8
:1001F00064363138336264313264363239350072F4
:100200006F7373657269616C5F6D7367732F52658D
:100210007175657374506172616D0039663065394E
:100220003862646136353938313938366464663558
:100230003361666137613430653439007374645FEB
:100240006D7367732F4865616465720032313736AC
:1002500064656361656362636537386162633362F5
:100260003936656630343966616265640073656E7F
:10027000736F725F6D7367732F4A6F696E74537417
:1002800061746500333036366463643736613663D3
:1002900066616566353739626430663334313733C9
:1002A000653966640000000000240027002A000071
:1002B000000000250028002B0004040404040404AA
:1002C0000402020202020203030303030301020405
:1002D00008102040800102040810200102040810C8
:1002E00020000000080002010000030407000000D5
:1002F000000000000000C81611241FBECFEFD8E098
:10030000DEBFCDBF12E0A0E0B1E0E8EDFDE302C04A
:1003100005900D92AC31B107D9F726E0ACE1B2E01F
:1003200001C01D92A634B207E1F711E0CCE7D1E09D
:1003300004C02197FE010E94E91CCB37D107C9F701
:100340000E94FA170C94EA1E0C940000CF92DF92E0
:10035000EF92FF92CF93DF93EC016A017B01E88972
:10036000F98982E08083C11481EED806E104F104AA
:10037000A1F060E079E08DE390E0A70196010E9492
:10038000741C2150310941095109569547953795FB
:100390002795211580E1380798F0E889F9891082BE
:1003A00060E874E88EE190E0A70196010E94741C59
:1003B000215031094109510956954795379527959F
:1003C000EC85FD853083EE85FF852083188EEC89D2
:1003D000FD8986E08083EA89FB8980818061808352
:1003E000EA89FB89808188608083EA89FB89808132
:1003F00080688083EA89FB8980818F7D8083DF919B
:10040000CF91FF90EF90DF90CF9008958F929F92C1
:10041000AF92BF92FF920F931F93CF93DF93FC0194
:10042000F0808BE08F1508F44BC0828108E512E064
:10043000081B110987FD1395000F111F000F111FD5
:100440008181C8E8D0E0C81BD10987FDD395CC0FC6
:10045000DD1FCC0FDD1F4E010D2E000CAA08BB08BE
:100460009801012E000C440B550B281939094A0933
:100470005B09AAE5B0E00E94321C24EB30E040E0CA
:1004800050E00E94131C820E931EA41EB51E8C16F3
:100490009D062CF0E801801691060CF4E4012297E9
:1004A000CC0FDD1F2FB7F8948F2D90E0FC01EE0FDD
:1004B000FF1FE80FF91FE25BFD4FD283C1832FBFFF
:1004C000DF91CF911F910F91FF90BF90AF909F90C0
:1004D0008F900895AF92BF92CF92DF92EF92FF92EA
:1004E0000F931F93CF93DF936C017B018B01040F5C
:1004F000151FEB015E01AE18BF08C017D10759F0F8
:100500006991D601ED91FC910190F081E02DC60139
:100510000995892B79F7C501DF91CF911F910F9133
:10052000FF90EF90DF90CF90BF90AF900895FC01C7
:10053000538D448D252F30E0842F90E0821B930B48
:10054000541710F0CF96089501970895FC01918DEE
:10055000828D981761F0A28DAE0FBF2FB11D5D96F1
:100560008C91928D9F5F9F73928F90E008958FEF93
:100570009FEF0895FC01918D828D981731F0828D47
:10058000E80FF11D858D90E008958FEF9FEF08959E
:10059000FC01918D228D892F90E0805C9F4F821B02
:1005A00091098F739927089582E792E00E94C8020B
:1005B00021E0892B09F420E0822F089580E090E06B
:1005C000892B29F00E94D40281110C940000089517
:1005D000FC01A48DA80FB92FB11DA35ABF4F2C91B8
:1005E000848D90E001968F739927848FA689B789AF
:1005F0002C93A089B1898C91837080648C93938DA6
:10060000848D981306C00288F389E02D80818F7D48
:1006100080830895EF92FF920F931F93CF93DF9300
:10062000EC0181E0888F9B8D8C8D98131AC0E8892E
:10063000F989808185FF15C09FB7F894EE89FF89FD
:100640006083E889F98980818370806480839FBF9B
:1006500081E090E0DF91CF911F910F91FF90EF909B
:100660000895F62E0B8D10E00F5F1F4F0F731127AB
:10067000E02E8C8D8E110CC00FB607FCFACFE889E6
:10068000F989808185FFF5CFCE010E94E802F1CF84
:10069000EB8DEC0FFD2FF11DE35AFF4FF0829FB75A
:1006A000F8940B8FEA89FB8980818062CFCFCF934A
:1006B000DF93EC01888D8823B9F0AA89BB89E8898A
:1006C000F9898C9185FD03C0808186FD0DC00FB630
:1006D00007FCF7CF8C9185FFF2CF808185FFEDCFAE
:1006E000CE010E94E802E9CFDF91CF91089590E01A
:1006F000FC01EF51FD4F2491FC01E353FD4F349178
:10070000FC01E754FD4FE491EE23C9F0222339F0B8
:10071000233001F1A8F4213019F1223029F1F0E061
:10072000EE0FFF1FE155FD4FA591B4918FB7F894DF
:10073000EC91611126C030953E233C938FBF089504
:100740002730A9F02830C9F0243049F78091800083
:100750008F7D03C0809180008F7780938000DFCFF2
:1007600084B58F7784BDDBCF84B58F7DFBCF80913F
:10077000B0008F778093B000D2CF8091B0008F7D92
:10078000F9CF3E2BDACF3FB7F89480914A0290918F
:100790004B02A0914C02B0914D0226B5A89B05C01A
:1007A0002F3F19F00196A11DB11D3FBFBA2FA92FF0
:1007B000982F8827BC01CD01620F711D811D911DED
:1007C00042E0660F771F881F991F4A95D1F7089559
:1007D0002FB7F894609146027091470280914802C9
:1007E000909149022FBF0895CF93DF93DC018C9144
:1007F0008C3008F06DC0CB01FB01E353FD4F249119
:1008000087549D4FFC018491882399F090E0880FD4
:10081000991FFC01EB55FD4FC591D491FC01E155A9
:10082000FD4F859194918FB7F894E881E22BE8838E
:100830008FBF8C91282F30E0F901EE0FFF1FE20FE0
:10084000F31FE25BFD4F962F9F736081607C692BE5
:10085000608311961C92119712961C9212972CE0AD
:10086000622F0E94B51C829FB001112430E020E06D
:10087000AB01420F531FFA01EE0FFF1FE40FF51FEC
:10088000E25BFD4F908196FD16C02F5F3F4F2C30ED
:10089000310571F781110FC01092800082E08093C2
:1008A00081001092850010928400B19A80916F00AF
:1008B000826080936F00EC918E2F90E0FC01EE0F30
:1008C000FF1FE80FF91FE25BFD4F8081806480838A
:1008D0008C91DF91CF9108950F931F93CF93DF9366
:1008E000CDB7DEB72A970FB6F894DEBF0FBECDBFE7
:1008F0008C018EE291E09A8389831B821C821D8287
:100900001E821F82188619861A86D801ED91FC91E5
:100910000190F081E02DAE014F5F5F4F6AE070E023
:10092000C80109950E94E803F801608771878287F2
:1009300093872A960FB6F894DEBF0FBECDBFDF9126
:10094000CF911F910F9108958E549D4FFC0180818E
:10095000089584E892E008958DE692E008958F5B13
:100960009F4FFC01808191810895CF93DF9300D048
:1009700000D01F92CDB7DEB72AE031E03A83298359
:100980006B835D834C83DC01ED91FC910190F081E0
:10099000E02DAE014F5F5F4F67E070E009950F906B
:1009A0000F900F900F900F90DF91CF910895AF921D
:1009B000BF92CF92DF92EF92FF920F931F93CF934C
:1009C000DF93643671054CF0FC01EE54FD4F20813D
:1009D000C12CD12C222309F462C0DA016B01EC0195
:1009E000BC016D5C7E4FED91FC910190F081E02D9A
:1009F000CA0109958C017E0124EDE21A2EEFF20A5C
:100A00002FEFD7012C93FE01E35DFE4F2EEF2083E5
:100A100031968083319690833196890F80958083BB
:100A20003196C0821696DC9245E050E030E020E03E
:100A3000C80107964817590730F46191260F311DF8
:100A40004F5F5F4FF7CF085F1F4F8C0F9D1FFC015B
:100A5000E45DFE4F209520830931B1E01B07A8F427
:100A600068015701C5018E199F0980179107BCF4D1
:100A70008A819B81F50161915F01DC01ED91FC911F
:100A80000190F081E02D0995EDCF42E851E063E05F
:100A9000CE010E94B504CC24CA94DD24DA94C601A8
:100AA000DF91CF911F910F91FF90EF90DF90CF904A
:100AB000BF90AF900895CF92DF92EF92FF92DC014A
:100AC0001D921D921D921C921397FB0130E020E0B5
:100AD000419150E0022E02C0440F551F0A94E2F7E4
:100AE000052E000C660B770BCD90DD90ED90FC9001
:100AF00013974C295D296E297F294D935D936D9342
:100B00007C931397285F3F4F2032310509F7FF9000
:100B1000EF90DF90CF900895FC01408351831282C3
:100B2000138208958CE492E008958CE392E0089596
:100B30004F925F926F927F928F929F92AF92BF92ED
:100B4000EF92FF920F931F93CF93DF9300D000D0CB
:100B5000CDB7DEB77C018B01FB01808190E0B0E076
:100B6000A0E0F70182839383A483B583FB012181F5
:100B7000922BF70182839383A483B583FB012281A7
:100B8000A22BF70182839383A483B583FB01238186
:100B9000B22BF70182839383A483B583FB01848105
:100BA00090E0B0E0A0E0F70186839783A087B1874B
:100BB000FB012581922BF70186839783A087B1875C
:100BC000FB012681A22BF70186839783A087B1873B
:100BD000FB012781B22BF70186839783A087B1871A
:100BE000FB01808590E0B0E0A0E0F7018287938769
:100BF000A487B587FB012185922BF7018287938714
:100C0000A487B587FB012285A22BF70182879387F2
:100C1000A487B587FB012385B22BF70182879387D1
:100C2000A487B587645F7F4FCE0101960E945B0564
:100C300089819A81AB81BC814C015D01F0E18F0E0D
:100C4000911CA11CB11CA801415F5F4FFA0120E17A
:100C500030E02901712C612C481459046A047B048A
:100C600028F4618161932F5F3F4FF3CFF801E80FC4
:100C7000F91F1786F7015787468740960F900F9008
:100C80000F900F90DF91CF911F910F91FF90EF90F8
:100C9000BF90AF909F908F907F906F905F904F909C
:100CA0000895CF93DF93DC0116968D919C91179751
:100CB000FB0116964D915C91179714962D913C91DE
:100CC000159745395105CCF46491240F351FE9017E
:100CD000688316962D913C91179731961496CD9175
:100CE000DC911597C20FD31F48812F5F3F4F179696
:100CF0003C932E9316974111DCCF16962D913C9183
:100D000017972539310534F022E030E019963C93ED
:100D10002E93189714962D913C91820F931FDF917B
:100D2000CF9108950C94510641110C945106CB01BA
:100D300008958BE192E008958FEF91E008958EED94
:100D400091E008958BEC91E008954F925F926F923D
:100D50007F928F929F92AF92BF92EF92FF920F93EA
:100D60001F93CF93DF9300D000D0CDB7DEB77C01C7
:100D70008B01FB018191BF01F7018283CE010196B6
:100D80000E945B0589819A81AB81BC814C015D0128
:100D9000F5E08F0E911CA11CB11CA8014C5F5F4FA8
:100DA000FA0125E030E02901712C612C4814590426
:100DB0006A047B0428F4618161932F5F3F4FF3CF76
:100DC000F801E80FF91F1482F70154834383059655
:100DD0000F900F900F900F90DF91CF911F910F9177
:100DE000FF90EF90BF90AF909F908F907F906F900B
:100DF0005F904F9008958AEA91E0089581E991E02B
:100E000008954F925F926F927F928F929F92AF92CE
:100E1000BF92CF92DF92EF92FF920F931F93CF93E7
:100E2000DF93CDB7DEB72C970FB6F894DEBF0FBEB9
:100E3000CDBF7C018B01DB018C9190E0F7019383A6
:100E4000828311962C91922B938382836E5F7F4FC6
:100E5000CE0101960E945B0589809A80AB80BC80A0
:100E600024013501F6E04F0E511C611C711C9801E4
:100E70002B5F3F4FF90186E090E0AC0170E060E04D
:100E8000441555056605770520F441814193019687
:100E9000F4CFB4016A5F7F4FF801E80DF91D1582A8
:100EA000D70115963C932E931497600F711FCE01B6
:100EB00005960E945B05BAE08B0E911C4D805E800A
:100EC0006F807884C401092C000CAA0BBB0B5C0159
:100ED0006D01A40CB51CC61CD71CF801E80DF91D4A
:100EE000AF01401B510B70E060E04A155B056C05DB
:100EF0007D0538F42191AF0142505109DA012C935C
:100F0000EFCF480C591CB801640D751DFB013197DA
:100F10001082C4010197800F911FF7019783868388
:100F2000CE0109960E945B0592012C5F3F4F898498
:100F30009A84AB84BC84A901032E000C660B770B4A
:100F4000480D591D6A1D7B1DF801E20FF31FCF01EB
:100F5000801B910BB0E0A0E084179507A607B707A8
:100F600028F48191DF0112978C93F1CFC901880D8C
:100F7000991DF801E80FF91FDF0111971C9221500C
:100F80003109020F131FD70119961C930E9318975E
:100F90002181428150E070E060E0BA01552744278A
:100FA000522B2081422B2381722BF70142875387DA
:100FB0006487758704962C960FB6F894DEBF0FBE33
:100FC000CDBFDF91CF911F910F91FF90EF90DF90F8
:100FD000CF90BF90AF909F908F907F906F905F90D9
:100FE0004F90089580E791E0089582E691E008959A
:100FF000FC01DB014C9150E070E060E042835383E0
:101000006483758311968C911197582B4283538377
:101010006483758312968C911297682B4283538355
:101020006483758313968C911397782B4283538333
:101030006483758314964C91149750E070E060E0DF
:10104000468357836087718715968C911597582B27
:10105000468357836087718716968C911697682B05
:10106000468357836087718717968C91782B4683C8
:1010700057836087718788E090E00895DC01FB0169
:1010800012968C911297808313968C91139781837B
:1010900014968C911497828315968C91159783835F
:1010A00016968C911697848317968C911797858343
:1010B00018968C911897868319968C91878388E06F
:1010C00090E00895CF92DF92EF92FF920F931F93DB
:1010D000FC01DB01C3800C2D10E030E020E045E096
:1010E00036952795179507954A95D1F70D931D933A
:1010F0002D933C9313978481C82ED12CF12CE12C95
:1011000053E0CC0CDD1CEE1CFF1C5A95D1F7C02A15
:10111000D12AE22AF32ACD92DD92ED92FC92139726
:101120008581082F10E030E020E06BE0000F111FF8
:10113000221F331F6A95D1F70C291D292E293F291B
:101140000D931D932D933C931397468150E070E0CF
:1011500060E083E1440F551F661F771F8A95D1F722
:101160004427552768777727042B152B262B372BF9
:101170000D931D932D933C931397478150E070E09E
:1011800060E094E0440F551F661F771F9A95D1F7D2
:10119000407F577066277727C680D12CF12CE12C31
:1011A00084E0F694E794D794C7948A95D1F74C29B4
:1011B0005D296E297F294115510561057105A1F051
:1011C000405853406109710997E1440F551F661F4C
:1011D000771F9A95D1F7402B512B622B732B4D9390
:1011E0005D936D937C931397478150E070E060E0CE
:1011F000742F66275527442744275527662770787C
:101200000D911D912D913C911397402B512B622BE9
:10121000732B4D935D936D937C93139788E090E0CF
:101220001F910F91FF90EF90DF90CF9008958F92D4
:101230009F92AF92BF92CF92DF92EF92FF92CF93A5
:10124000DF93EC014A015B01DB01CA0147E1B5957F
:10125000A795979587954A95D1F79927AA27BB27F0
:101260000097A105B10521F080589C4FAF4FBF4FAB
:10127000188219821A82B501A40125E0440F551F76
:10128000661F771F2A95D1F74B83B501A40133E080
:1012900075956795579547953A95D1F74C83B50164
:1012A000A401EBE07595679557954795EA95D1F7B9
:1012B0004D83B501A401F3E1759567955795479561
:1012C000FA95D1F74F706C017D0124E0CC0CDD1C48
:1012D000EE1CFF1C2A95D1F74C294E836C017D0131
:1012E00034E0F594E794D794C7943A95D1F720E089
:1012F00030E0A901C501B4010E942C1B87FD0EC07E
:10130000CF8288E090E0DF91CF91FF90EF90DF9067
:10131000CF90BF90AF909F908F9008958C2D806854
:101320008F83EFCF0F931F93CF93DF93EC018881CF
:101330009981009759F02A813B812617370730F0B1
:1013400081E0DF91CF911F910F9108958B016F5F25
:101350007F4F0E94141E009759F0998388831B8346
:101360000A832C813D81232B59F7FC011082E8CFA1
:1013700080E0E7CFFC01848195810C948B1DCF9395
:10138000DF93EC010E94BA09CE01DF91CF910C945A
:101390008B1D8F929F92AF92BF92CF92DF92EF926E
:1013A000FF920F931F93CF93DF93CDB7DEB72C97A8
:1013B0000FB6F894DEBF0FBECDBF7C01DC0158969E
:1013C000ED91FC91C080D18018861F821A86198603
:1013D0001C861B86C114D104E9F0F601019000209F
:1013E000E9F731978F010C191D09B801CE01079655
:1013F0000E9492092F81388581114BC0211531053A
:1014000019F0C9010E948B1D18861F821C861B863D
:101410001A8619861A8219821C821B821E821D82DC
:1014200064E070E0CE0101960E94920929813A8120
:10143000811136C02115310519F0C9010E948B1D9B
:101440001A8219821E821D821C821B82D701589625
:10145000ED91FC914081518161E084E693E00E942E
:10146000B5042B853C858D819E8109811A812817C1
:10147000390791F58F8198850097E1F001151105E5
:1014800009F0C4C0232B09F4C5C0DC018C9190E0A5
:101490001FC01C870B87B601C9010E94E31EBACF8B
:1014A00084E090E09E838D836BEB71E0C9010E9424
:1014B000E31ECCCFDD24D39401151105A1F0232B1D
:1014C00009F4A8C0F801808190E091958195910977
:1014D000DD24D394892B09F0D12C0115110519F0C5
:1014E000C8010E948B1D8F819885009711F00E9482
:1014F0008B1DF70102A113A126EE3EE245E652E460
:10150000D80114966D917D918D919C9117970E94B1
:10151000551B4B015C01DD2009F47FC026EE3EE245
:1015200045E652E4F80160817181828193810E94D5
:10153000551B60931C0270931D0280931E029093B2
:101540001F028092200290922102A0922202B09269
:10155000230226EE3EE245E652E4D80118966D914C
:101560007D918D919C911B970E94551B6093240245
:1015700070932502809326029093270226EE3EE286
:1015800045E652E4F80164857585868597850E9455
:10159000551B60932C0270932D0280932E02909322
:1015A0002F0240EC51E061E084E693E00E94B50434
:1015B0008CE1E82E82E0F82ED7016D917D918D911E
:1015C0009D917D0100E312E023E049E00E94D718DD
:1015D000A80161E084E693E00E94B504B0E3EB1655
:1015E000B2E0FB0649F72C960FB6F894DEBF0FBEAB
:1015F000CDBFDF91CF911F910F91FF90EF90DF90C2
:10160000CF90BF90AF909F908F900895B8010E94A7
:10161000DA1E5ECFDD24D39460CF80923F02909299
:101620004002A0924102B092420244EC51E061E0DB
:1016300084E693E00E94B50460913F0270914002FD
:10164000809141029091420200E312E023E049E0E0
:101650000E94D718A80161E084E693E00E94B504D7
:10166000C2CF2F923F924F925F926F927F928F9252
:101670009F92AF92BF92CF92DF92EF92FF920F9321
:101680001F93CF93DF93CDB7DEB728970FB6F894AB
:10169000DEBF0FBECDBF8C016B0102960E94980584
:1016A0007C01F601E80FF91F808191818280912CE5
:1016B000B12CA12C540199248824992A882A838149
:1016C000B82A24E0E20EF11CF80182899389A489EA
:1016D000B58988159905AA05BB0560F4B401660FA4
:1016E000771F808D918D0E94141ED80159969C936E
:1016F0008E935897F801828A938AA48AB58A412CDE
:10170000512C32011801F6E12F0E311CF601EE0DBD
:10171000FF1DD80152964D915D916D917C91559729
:10172000C70104967C01441655066606770608F044
:101730004FC0BF01CE0101960E945B0589819A814D
:10174000AB81BC818D839E83AF83B887A7010F2CAB
:10175000000C660B770B480F591F6A1F7B1FF601A1
:10176000EE0DFF1D4F018C189D08B12CA12C841685
:101770009506A606B70638F4B1909F0122503109AC
:10178000D901BC92EFCF8D819E818E0D9F1DF601F8
:10179000E80FF91F31971082B1E0EB1AF108EC0C59
:1017A000FD1CF801F78AE68A7C01C201880F991FA7
:1017B000008CF18DE02DE80FF91FD1018D919C91E6
:1017C00091838083BFEF4B1A5B0A6B0A7B0A9ECF23
:1017D000808191818280912CB12CA12C540199247B
:1017E0008824992A882A8381B82AF801828D938DCA
:1017F000A48DB58D88159905AA05BB0570F4B401B3
:10180000660F771F660F771F82A193A10E94141E97
:10181000D80193969C938E939297F801828E938E23
:10182000A48EB58EB12CA12C412C512C3201480133
:10183000FEE18F0E911CF601EE0DFF1DD8015A96A8
:101840004D915D916D917C915D97441655066606AC
:101850007706D0F4B401CF010E946208E80EF91EA9
:10186000F801A2A1B3A1AA0DBB1D84E0F40101906F
:101870000D928A95E1F7FFEF4F1A5F0A6F0A7F0A10
:1018800024E0A20EB11CD7CF808191818280912C5F
:10189000B12CA12C540199248824992A882A838167
:1018A000B82A84E0E80EF11CF80184A195A1A6A154
:1018B000B7A188159905AA05BB0570F4B401660F98
:1018C000771F660F771F84A595A50E94141ED80167
:1018D0009D969C938E939C97F80184A295A2A6A2B4
:1018E000B7A2B12CA12C412C512C32014801F8E2B5
:1018F0008F0E911CF601EE0DFF1DD80194964D91AF
:101900005D916D917C919797441655066606770612
:10191000D0F4B401CF010E946208E80EF91EF8016C
:10192000A4A5B5A5AA0DBB1D84E0F40101900D92FC
:101930008A95E1F7FFEF4F1A5F0A6F0A7F0A24E0EA
:10194000A20EB11CD7CF808191818280912CB12CC5
:10195000A12C540199248824992A882A8381B82AA1
:1019600084E0E80EF11CF80186A597A5A0A9B1A90D
:1019700088159905AA05BB0570F4B401660F771F99
:10198000660F771F86A997A90E94141ED801D796C3
:101990009C938E93D697F80186A697A6A0AAB1AA83
:1019A000B12CA12C412C512C32014801F2E38F0EB5
:1019B000911CF80186A597A5A0A9B1A948165906BA
:1019C0006A067B06E0F4B401C6018E0D9F1D0E94DD
:1019D0006208E80EF91EF801A6A9B7A9AA0DBB1D59
:1019E00084E0F40101900D928A95E1F7FFEF4F1A20
:1019F0005F0A6F0A7F0A24E0A20EB11CDACFC7018A
:101A000028960FB6F894DEBF0FBECDBFDF91CF9101
:101A10001F910F91FF90EF90DF90CF90BF90AF900C
:101A20009F908F907F906F905F904F903F902F90FE
:101A300008950F931F93CF93DF93EC018C01095FFF
:101A40001F4FC8010E94310BEF96E881F981C80150
:101A5000DF91CF911F910F910994EF92FF920F9315
:101A60001F93CF93DF938C01EB01FC01828188836C
:101A70008381898384818A8385818B8386818C831A
:101A800087818D8380858E8381858F8382858887FA
:101A90008385898784858A8785858B87A685B78591
:101AA000FD0101900020E9F731977F01EA1AFB0A56
:101AB000A70170E060E0CE010C960E948C05F80151
:101AC00066857785A701CE0140960E94D11EC70189
:101AD0004096DF91CF911F910F91FF90EF90089565
:101AE0004F925F926F927F928F929F92AF92BF922E
:101AF000CF92DF92EF92FF920F931F93CF93DF93DA
:101B0000EC016B0102960E942D0D8C01F601E80F8D
:101B1000F91F8A8980838B8981838C8982838D894F
:101B200083830C5F1F4F412C512C3201F601E00FD3
:101B3000F11F0C5F1F4F4601800E911E8A899B8901
:101B4000AC89BD89481659066A067B0650F55201D4
:101B5000AA0CBB1CA88DB98DAA0DBB1D8D919C91A3
:101B6000DC010D900020E9F711977D01E81AF90AD0
:101B7000A70170E060E0CF010E948C05888D998DEF
:101B8000A80EB91EF50160817181A701C4010E94F0
:101B9000D11E0E0D1F1DFFEF4F1A5F0A6F0A7F0A3D
:101BA000C5CF8A8D80838B8D81838C8D82838D8D33
:101BB0008383F12CE12C812C912C5401F601E00F50
:101BC000F11F8A8D9B8DAC8DBD8D88169906AA0656
:101BD000BB06B0F4AAA1BBA1AE0DBF1D4D915D9196
:101BE0006D917C91CF010E941709080F191F8FEF8B
:101BF000881A980AA80AB80AE4E0EE0EF11CDECFB3
:101C00008CA180838DA181838EA182838FA1838308
:101C10000C5F1F4FF12CE12C812C912C5401F6010B
:101C2000E00FF11F8CA19DA1AEA1BFA1881699065E
:101C3000AA06BB06B0F4ACA5BDA5AE0DBF1D4D9167
:101C40005D916D917C91CF010E941709080F191FBA
:101C5000FFEF8F1A9F0AAF0ABF0A84E0E80EF11C5B
:101C6000DECF8EA580838FA5818388A9828389A9F1
:101C700083830C5F1F4FF12CE12C812C912C54019C
:101C80008EA59FA5A8A9B9A988169906AA06BB067C
:101C9000C0F4EEA9FFA9EE0DFF1D408151816281C4
:101CA0007381C601800F911F0E941709080F191F29
:101CB000EFEF8E1A9E0AAE0ABE0AF4E0EF0EF11C98
:101CC000DFCFC801DF91CF911F910F91FF90EF906F
:101CD000DF90CF90BF90AF909F908F907F906F904C
:101CE0005F904F9008952F923F924F925F926F9224
:101CF0007F928F929F92AF92BF92CF92DF92EF929C
:101D0000FF920F931F93CF93DF93CDB7DEB72E973C
:101D10000FB6F894DEBF0FBECDBF8C016B01DB01A7
:101D20008D909D90AD90BC90FC0182819381A481A7
:101D3000B58188159905AA05BB0570F4B401660F35
:101D4000771F660F771F828593850E94141ED80126
:101D50001B969C938E931A97F80182829382A48299
:101D6000B582C60140E050E0BA01A4E0EA2EF12CB1
:101D700098012A5F3F4FDC011596EC911597169656
:101D80004C901697512C712C612C3201552444240F
:101D90005E2A1496EC9114974E2A1796EC917E2A9F
:101DA000D7011701E4E02E0E311C71010496F801F1
:101DB00082809380A480B580481559056A057B050B
:101DC000A8F446825782608671861497A284B384F1
:101DD000AA0DBB1DE4E0BE2EF90101900D92BA944C
:101DE000E1F74F5F5F4F6F4F7F4FC5CF848595857C
:101DF000A685B78584159505A605B70570F4B201CB
:101E0000660F771F660F771F848995890E94141EBD
:101E1000D80155969C938E935497F8014486558625
:101E200066867786C601820D931D412C512C3201A6
:101E30001C019801205F3F4FDC0111966C911197B6
:101E400012968C901297912CB12CA12C54019924AC
:101E50008824962A6C91862A13966C91B62AB4E04F
:101E6000EB0EF11CF801448555856685778544168F
:101E7000550666067706C0F4808A918AA28AB38ADC
:101E8000BC0162197309A489B589A60FB71F64E064
:101E9000F90101900D926A95E1F7BFEF4B1A5B0AC9
:101EA0006B0A7B0A0496C8CF86899789A08DB18D6D
:101EB00088159905AA05BB0560F4B401660F771F64
:101EC000848D958D0E94141ED8015D969C938E93EF
:101ED0005C97F801868A978AA08EB18E412C512C8E
:101EE00032011801FAE12F0E311CF8018689978919
:101EF000A08DB18D481659066A067B0608F05CC0B5
:101F0000B6016E0D7F1DCE0101960E945B05970103
:101F10002C5F3F4F3E872D8789809A80AB80BC80A5
:101F2000C901032E000CAA0BBB0BAC01BD01480D6F
:101F3000591D6A1D7B1D49875A876B877C87F9016C
:101F4000EC0DFD1D9F012C193D09B90190E080E0C9
:101F500029853A854B855C85621773078407950749
:101F600028F42191DF0112972C93ECCFED84FE84AD
:101F7000E80CF91CF601EE0DFF1D319710828D85DE
:101F80009E8501978C0D9D1DD8015B969C938E9329
:101F90005A97C201880F991F5C96ED91FC91E80F4A
:101FA000F91FD1018D919C9191838083BFEF4B1AD2
:101FB0005B0A6B0A7B0A99CFC7012E960FB6F8947D
:101FC000DEBF0FBECDBFDF91CF911F910F91FF906C
:101FD000EF90DF90CF90BF90AF909F908F907F90C9
:101FE0006F905F904F903F902F9008952F923F9267
:101FF0004F925F926F927F928F929F92AF92BF9219
:10200000CF92DF92EF92FF920F931F93CF93DF93C4
:10201000CDB7DEB7E0970FB6F894DEBF0FBECDBFE9
:102020008C010E94E8032B013C01980129543D4F8B
:102030003E8F2D8FF90180819181A281B381A3010F
:102040009201281B390B4A0B5B0BDA01C901893F4E
:102050009A42A105B10510F035971082480148E574
:10206000841A4DEF940AD4018D919C91892B79F0BB
:10207000F801E554FD4F80819181A281B3818415DF
:102080009505A605B70518F4F40111821082980190
:1020900020553D4F3A8F298FA80144555D4F5C8FE5
:1020A0004B8F180154E1250E311CC8018E549D4FF1
:1020B0009AA389A3D801A054BD4FB8A7AFA3F80134
:1020C000E154FD4FFAA7E9A75801F6E5AF1AFDEF75
:1020D000BF0A2250310938A32F8FA80145545D4F04
:1020E0005CA74BA7D301C2014496A11DB11D8DA7CA
:1020F0009EA7AFA7B8ABD80112968D919C91DC0139
:10210000ED91FC910284F385E02D09959C0197FDEA
:1021100003C3E98DFA8D80819181820F931F918392
:102120008083D4014D915C91119747305105E1F4C2
:10213000EF8DF8A180819181AC014F5F5F4F51839A
:102140004083800F911FDC0154962C93F501808110
:102150009181019791838083892B69F688E090E0D3
:10216000D4018D939C93C7CF4115510509F03FC011
:102170002F3F310589F481E090E0F4019183808361
:102180002DA53EA54FA558A9ABA5BCA52D933D9364
:102190004D935C931397AFCF0E94E80364197509C0
:1021A00086099709663071058105910508F4A3CF6A
:1021B000F801EE54FD4F10828EEF9FEFE0960FB6C0
:1021C000F894DEBF0FBECDBFDF91CF911F910F916D
:1021D000FF90EF90DF90CF90BF90AF909F908F9047
:1021E0007F906F905F904F903F902F900895413077
:1021F000510581F482E090E02E3F310571F11D928E
:102200001C92E9A1FAA18081811175CFC8010E94B9
:102210006C0471CF4230510589F4D5012D933C9364
:10222000EF8DF8A11182108283E090E0D4018D93AC
:102230009C93E98DFA8D318320835DCF4330510526
:1022400081F4322F2227D5018D919C911197280F6F
:10225000391F2D933C9384E090E0F40191838083B7
:102260004ACF4430510571F460E071E00E94C11C16
:102270008F3F910519F485E090E072CFF40111824F
:10228000108239CF4530510571F4AB8DBC8D2D9343
:102290003C9386E090E0F40191838083A98DBA8D10
:1022A0002D933C9328CF4630510591F4322F2227AD
:1022B000EB8DFC8D80819181280F391F3183208324
:1022C00087E090E08D939C93F5018081918144CFCC
:1022D0004830510509F00FCF1D921C9260E071E06B
:1022E0000E94C11C8F3F910509F005CFAB8DBC8DBD
:1022F000ED91FC91309709F040C1C8010E946C0437
:1023000086E191E09A8389831C821B828AEB91E0AB
:102310009E838D8398878F839A8789871B861C86E7
:102320001D861E866801BCEBCB1ABDEFDB0A780167
:10233000EAE8EE1AEDEFFE0A22E2222E21E0322E2A
:10234000D601AD90BC90A114B10409F471C01A8AF1
:10235000198A388A2F861E8A1D8A86E990E00E9493
:10236000EF1C9C8B8B8BFC0110828B569F4FDC01EA
:102370001C92F501858196819C838B83608171819C
:102380004281CE010F960E9494069E838D83D601D2
:10239000ED91FC9183819481DC01ED91FC910480AD
:1023A000F581E02D0995BC01CE010F960E945106E2
:1023B00098878F83D601ED91FC9183819481DC0114
:1023C000ED91FC910680F781E02D0995BC01CE01CD
:1023D0000F960E9451069A87898728E131E040E0F4
:1023E00050E02B873C874D875E87D601ED91FC91AD
:1023F00061857285D801ED91FC910190F081E02D0D
:10240000AE014F5F5F4FC801099589899A894CECED
:1024100051E08130910521F0029731F440EE51E016
:1024200063E0C8010E94B504CE010F960E94BA096C
:10243000B2E0CB0ED11CEC14FD0409F081CF92E286
:10244000A92E91E0B92EF701C080D180C114D1042A
:1024500009F478C01A8A198AB88AAF861E8A1D8A3A
:1024600086E990E00E94EF1C9C8B8B8BDC011C9218
:102470008B569F4FFC011082D60112968D919C9134
:1024800013979C838B8314966D917C911597169668
:102490004C91CE010F960E9494069E838D83F70186
:1024A00080819181DC01ED91FC910480F581E02D2A
:1024B0000995BC01CE010F960E94510698878F8323
:1024C000F70180819181DC01ED91FC910680F7811B
:1024D000E02D0995BC01CE010F960E9451069A8706
:1024E000898728E131E040E050E02B873C874D8729
:1024F0005E87D801ED91FC91C080D180F701808189
:102500009181DC01ED91FC910280F381E02D099530
:10251000AE014F5F5F4FBC01C801F6010995898983
:102520009A894CEC51E08130910521F0029731F409
:1025300040EE51E063E0C8010E94B504CE010F9661
:102540000E94BA09F2E0EF0EF11C8E149F0409F00C
:102550007ACFF801EE54FD4F81E0808331964082BE
:10256000518262827382AD8DBE8D4D925D926D926D
:102570007C9213978FEF9FEF21CEEA30F10509F09F
:10258000A3C08EE291E09A8389831B821C821D8204
:102590001E821F82188619861A860E94E803F80197
:1025A000C084D184E284F3849B01AC012C193D09E1
:1025B0004E095F0969017A01B101CE0101960E94BD
:1025C000F807C701B60128EE33E040E050E00E9472
:1025D000741C69017A019B01AC018B819C81AD81E6
:1025E000BE818C0D9D1DAE1DBF1D8B839C83AD8355
:1025F000BE8360E472E48FE090E00E94A51CCF806F
:10260000D884E984FA84DC01CB018C0D9D1DAE1DBC
:10261000BF1D8F839887A987BA870E94E803CF8060
:10262000D884E984FA8436E3D31A35E6E30A34EC35
:10263000F30A28EE33E040E050E00E94741C2BA324
:102640003CA34DA35EA39B01AC0160E472E48FE068
:1026500090E00E94A51CA7019601261B370B480B92
:10266000590BCA01B901CB80DC80ED80FE8031E0DE
:10267000C31AD108E108F1082BA13CA14DA15EA12C
:10268000C21AD30AE40AF50A20E03AEC4AE95BE30D
:102690000E94741C2C0D3D1D4E1D5F1DD8011C9603
:1026A0002D933D934D935C931F97F801608B718B35
:1026B000828B938B0E94E803AD8DBE8D6D937D93CD
:1026C0008D939C93139717CDE630F10551F4B1012A
:1026D0008FA198A50E94730E81E0E9A5FAA58083D9
:1026E0000ACDEB30F10521F4A9A1BAA11C9203CDCA
:1026F000E952FF4FEE0FFF1FE00FF11F8081918124
:10270000009709F4F8CCDC01ED91FC910190F08187
:10271000E02DB1010995EFCCF801EE54FD4F808119
:10272000882301F17801BDE4EB1ABDEFFB0AF70144
:1027300080819181A281B381A3019201281B390B71
:102740004A0B5B0BDA01C901853C9940A105B10533
:1027500048F0C8010E946C04D7014D925D926D92C1
:102760007C92139790E080E029CD4F925F926F9218
:102770007F928F929F92AF92BF92CF92DF92EF9211
:10278000FF920F931F93CF93DF93EC017B018A811C
:10279000FB0180838B8181838C8182838D81838304
:1027A0003496412C512C320104E010E09F012F5F40
:1027B0003F4FCF010296DF011396A8010C5F1F4F18
:1027C0008A809B80AC80BD80481459046A047B04D5
:1027D000C8F4AA85BB85A40FB51F14974C91119618
:1027E0002C91119712969C91129713968C9140837D
:1027F0002183928383838FEF481A580A680A780AE4
:102800003496D4CF4C8540834D85F90140832E8585
:10281000FC0120838F858C93F701E00FF11F412C81
:10282000512C3201AF019F012F5F3F4FCF01029624
:10283000DF0113960C5F1F4F8C849D84AE84BF8490
:10284000481459046A047B04D8F4CF01841B950B07
:10285000AC89BD89A80FB91F3C9111962C91119795
:1028600012969C91129713968C91308321839283B8
:1028700083838FEF481A580A680A780A3496D3CFB0
:102880004E8940834F89F9014083288DFC012083C4
:10289000898D8C93412C512C32018E899F89A88D72
:1028A000B98D481659066A067B0680F55201AA0CB6
:1028B000BB1CEC8DFD8DEA0DFB1DA081B181FD01DE
:1028C00001900020E9F731976F01CA1ADB0AA601CF
:1028D00070E060E0C701800F911F0E948C050C5FC3
:1028E0001F4F8C8D9D8DA80EB91EF50160817181E1
:1028F000A601C701800F911F0E94D11E0C0D1D1D46
:10290000FFEF4F1A5F0A6F0A7F0AC7CFC801DF9136
:10291000CF911F910F91FF90EF90DF90CF90BF90DC
:10292000AF909F908F907F906F905F904F900895A1
:10293000EF92FF920F931F93CF93DF938C017B0154
:10294000DC0112962C911297FB012193CF01139673
:10295000ED91FC91EF0109900020E9F72197CE1B42
:10296000DF0BAE0170E060E00E948C05D801139689
:102970006D917C91AE01C70105960E94D11ECE01DA
:102980000596DF91CF911F910F91FF90EF900895E1
:10299000CF92DF92EF92FF920F931F93CF93DF932B
:1029A0006C01EB01DC0112968C91129788831396CF
:1029B0008C91139789831496ED91FC91DF010D9012
:1029C0000020E9F78D01015011090E1B1F0BA80112
:1029D00070E060E0CE0102960E948C05F6016481F1
:1029E0007581A801CE0106960E94D11EC8010696E7
:1029F000F601A681B781FD0101900020E9F731972A
:102A00007F01EA1AFB0AA70170E060E08C0F9D1FAE
:102A10000E948C05065F1F4FD60116966D917C9122
:102A2000A701CE01800F911F0E94D11E0E0D1F1D08
:102A3000F601A085B185FD0101900020E9F73197ED
:102A40007F01EA1AFB0AA70170E060E0CE01800F67
:102A5000911F0E948C050C5F1F4FD60118966D9137
:102A60007C91A701CE01800F911F0E94D11EC7014A
:102A7000800F911FF6016285438534852585C80F37
:102A8000D91F688349833A832B830496DF91CF91C2
:102A90001F910F91FF90EF90DF90CF9008951F92BC
:102AA0000F920FB60F9211242F933F934F935F9382
:102AB0006F937F938F939F93AF93BF93EF93FF9306
:102AC00082E792E00E94E802FF91EF91BF91AF91FF
:102AD0009F918F917F916F915F914F913F912F9136
:102AE0000F900FBE0F901F9018951F920F920FB668
:102AF0000F9211242F938F939F93EF93FF93E09165
:102B00008202F09183028081E0918802F091890233
:102B100082FD1BC0908180918B028F5F8F7320910B
:102B20008C02821741F0E0918B02F0E0EE58FD4FED
:102B3000958F80938B02FF91EF919F918F912F91B1
:102B40000F900FBE0F901F9018958081F4CF1F92A9
:102B50000F920FB60F9211242F933F938F939F9351
:102B6000AF93BF938091460290914702A091480293
:102B7000B09149023091450223E0230F2D3758F5DB
:102B80000196A11DB11D20934502809346029093AA
:102B90004702A0934802B093490280914A02909163
:102BA0004B02A0914C02B0914D020196A11DB11DA6
:102BB00080934A0290934B02A0934C02B0934D0233
:102BC000BF91AF919F918F913F912F910F900FBE29
:102BD0000F901F90189526E8230F0296A11DB11D96
:102BE000D2CF1F920F920FB60F9211242F933F93C3
:102BF0004F935F936F937F938F939F93AF93BF9305
:102C0000CF93DF93EF93FF9380914302C0914402EF
:102C1000D0E087FF24C0109285001092840080913C
:102C200043028F5F8093430280914302082E000C81
:102C3000990B8C179D0724F4809143028C30C4F1CA
:102C40008091840090918500049680349C4908F41A
:102C50007AC08091840090918500049676C080911E
:102C60004302082E000C990B8C179D07C4F6E091C7
:102C700043028E2FEE0F990BFC01EE0FFF1FE80FA2
:102C8000F91FE25BFD4F808186FFC9CFE0914302CF
:102C90008E2FEE0F990BFC01EE0FFF1FE80FF91FAF
:102CA000E25BFD4F808160E08F730E947703B7CFB6
:102CB0002091840030918500E09143028E2FEE0F29
:102CC000990BFC01EE0FFF1FE80FF91FE25BFD4FB0
:102CD00081819281820F931F909389008093880055
:102CE000E09143028E2FEE0F990BFC01EE0FFF1FB8
:102CF000E80FF91FE25BFD4F808186FF11C0E09174
:102D000043028E2FEE0F990BFC01EE0FFF1FE80F11
:102D1000F91FE25BFD4F808161E08F730E947703B2
:102D2000FF91EF91DF91CF91BF91AF919F918F91E3
:102D30007F916F915F914F913F912F910F900FBEB7
:102D40000F901F90189580E49CE9909389008093E0
:102D500088008FEF80934302E3CFFC0190914402FF
:102D60009C3098F481E0890F809344029083892FEE
:102D700090E0FC01EE0FFF1FE80FF91FE25BFD4F33
:102D800088EB9BE09283818308958FEF8083089581
:102D9000109275021092740288EE93E0A0E0B0E009
:102DA0008093760290937702A0937802B093790291
:102DB0008AE391E0909373028093720285EC90E035
:102DC00090937F0280937E0284EC90E09093810246
:102DD0008093800280EC90E0909383028093820243
:102DE00081EC90E0909385028093840282EC90E0E5
:102DF000909387028093860286EC90E090938902FC
:102E00008093880210928B0210928C0210928D0295
:102E100010928E0280E791E09093650380936403A3
:102E200082E792E0909367038093660380E091EEDF
:102E3000A0E0B0E08093680390936903A0936A03D5
:102E4000B0936B031092160684E691E090932506EA
:102E50008093240610923A0610923B0610923C068C
:102E600010923D061092410610924006E8EAF5E005
:102E70001192119285E0EA3DF807D1F7EAEDF5E00D
:102E80001192119286E0EC30F807D1F7E8E7F3E011
:102E900080E994E011928E179F07E1F7E0E9F4E0F2
:102EA000119285E0E83AF807D9F7109226061092B9
:102EB0002706109228061092290610922F061092CB
:102EC0002E061092300610923106109232061092A1
:102ED0003306109239061092380681E693E00E947C
:102EE000AD168EE593E00E94AD168BE593E00E944F
:102EF000AD1688E593E00E94AD1685E593E00E944B
:102F0000AD1682E593E00E94AD168AE791E09093BA
:102F1000100380930F0388E591E09093170380934B
:102F200016038CE491E09093190380931803109298
:102F30001A0310921B0310921C0310921D0310928F
:102F40001E0310921F03109220031092210310926F
:102F500022031092230310922403109225038AEB7C
:102F600091E09093270380932603109228031092F8
:102F7000290310922A0310922B0310922F03109210
:102F80002E031092300310923103109232031092EC
:102F90003303109239031092380310923A031092BF
:102FA0003B0310923C0310923D0310924303109296
:102FB000420310924403109245031092460310926C
:102FC000470310924D0310924C0389EC99E09093C3
:102FD0004F0380934E0381E090E0909351038093E0
:102FE000500384EF91E090931403809313031092A5
:102FF00015030895789484B5826084BD84B581609A
:1030000084BD85B5826085BD85B5816085BD8091B3
:103010006E00816080936E0010928100809181002B
:103020008260809381008091810081608093810023
:10303000809180008160809380008091B1008460E5
:103040008093B1008091B00081608093B000809146
:103050007A00846080937A0080917A008260809305
:103060007A0080917A00816080937A0080917A0062
:10307000806880937A001092C10040EC52E160E0D9
:1030800070E082E792E00E94A601409168035091AF
:10309000690360916A0370916B038091660390915C
:1030A00067030E94A60110920D0610920C06109262
:1030B0000F0610920E06109213061092120610922E
:1030C000110610921006EAEDF5E090E080E0219103
:1030D0003191232B09F065C0FC01EE0FFF1FE65272
:1030E000FA4F2FE033E0318320838C599F4F909328
:1030F0001203809311036BE070E081E693E00E947D
:10310000F4036AE070E08EE593E00E94F40369E066
:1031100070E08BE593E00E94F40366E070E088E5E0
:1031200093E00E94F40365E070E085E593E00E947F
:10313000F40364E070E082E593E00E94F40381E62A
:1031400093E00E9406028EE593E00E9406028BE562
:1031500093E00E94060288E593E00E94060285E55E
:1031600093E00E94060282E593E00E940602C0E01E
:10317000D0E00E94C3036B017C010E94C3036C1961
:103180007D098E099F09683E734081059105A8F36A
:10319000209779F30E94D402882359F30E940000FB
:1031A000E8CF01968931910509F091CFA4CFEF9234
:1031B0000F931F93CF93DF93E80134E047FD34E191
:1031C000042E000C550B57FF03C051954195510932
:1031D000E32E022F242FAE010E94F518CE01DF91BD
:1031E000CF911F910F91EF900895A9E0B0E0EBEF20
:1031F000F8E10C94431C6A01F22EB02E102FFBE371
:10320000AF2EA01608F41BE31F5F012F27E0AE01CD
:103210004F5F5F4F0E94541ABC018981982F9970AB
:10322000913009F43FC09BE2E1FC04C09E2D9170F7
:10323000E0FC3AC05E2D5071E82FE87083FF46C075
:1032400084E0911101C083E0EF2DE81B8F1508F099
:10325000E0E0D6018E2F20E2552351F1992329F089
:10326000D6019C93C60101966C0196012D5F3F4FDC
:10327000E2FE24C08EE4D6018C9391E411969C93D7
:10328000119712968C93D9018E2F90E281111BC059
:10329000E20FF32FF11D10828EEF9FEF2996ECE0E5
:1032A0000C945F1C9DE2C6CF90E2C4CF2D93815059
:1032B0008111FCCFCE0ED11CE0E0D0CF8EE6D6013E
:1032C0008C9391E6DBCF9D938150E0CF482F4470E3
:1032D00082FF3DC084E0911101C083E08F1510F49E
:1032E000EF2DE81BD6018E2F20E2552309F19923FB
:1032F00029F0D6019C93C60101966C0196012D5FC1
:103300003F4FE2FE1BC089E4D6018C938EE41196F8
:103310008C93119786E412968C93D9018E2F90E2AC
:10332000882309F4B5CF9D938150FACF2D93815016
:103330008111FCCFCE0ED11CE0E0D9CF89E6D601B9
:103340008C938EE611968C93119786E6E4CF9B01C1
:1033500077FF02C030E020E0A1E0B0E0911102C0B0
:10336000B0E0A0E0F9013196AE0FBF1F8B2C912C7D
:10337000BB2009F461C05401EFEFAE1ABE0AAA0DDA
:10338000BB1DFA161B0619F014F04F2D4A1B5111E4
:1033900088C0E3FC59C07601A42FB0E2A1114FC050
:1033A000C40ED11C992309F45BC040E0D6011196EC
:1033B000F60190836D01552309F448C0012F060FD3
:1033C0009A81582F507184FF03C0913309F4015042
:1033D00010160CF047C0093008F008E0EEE2FE2EAF
:1033E0005B01A01AB10885019194819491082F3F47
:1033F000320729F4D601FC92F60131966F0162176B
:10340000730794F1021713077CF5DB01A21BB30BC2
:10341000AA24A394B12CAC0EBD1EAA0DBB1D1196FF
:103420008C9121503109D601119628153905F4F0F7
:10343000F60180836D01DBCFB12CA12CA0CFF70169
:10344000B1937F01A150AACF9111B0CFD601942F93
:1034500050E302C05D9391509111FCCFC40ED11C7A
:1034600040E0ACCF01E0BACF80E3DBCF6217730757
:1034700031F4963388F4953311F4552369F0F6014D
:103480008083FD01842F90E2811108C0A40FB11D3B
:103490001C9290E080E002CF81E3F1CF91938150C4
:1034A000F3CF911183CF8ACF283008F027E033275C
:1034B000DA01990F311D87FD916000966105710554
:1034C00039F432602E5F3D9330E32A95E1F7089599
:1034D0009F3F30F080387105610509F03C5F3C5F2B
:1034E0003D93913008F08068911DDF93CF931F9337
:1034F0000F93FF92EF92192F987F9695E92F96954B
:103500009695E90FFF27EE53FF4F99273327EE24B7
:10351000FF24A701E70105900894079428F4360FCB
:10352000E71EF81E491F511D660F771F881F991F40
:103530000694A1F70590079428F4E70EF81E491F9A
:10354000561FC11D770F881F991F661F0694A1F78C
:103550000590079428F4F80E491F561FC71FD11D68
:10356000880F991F661F771F0694A1F7059007948F
:1035700020F4490F561FC71FD81F990F661F771FCA
:10358000881F0694A9F784911095177041F0D6957D
:10359000C79557954795F794E7941A95C1F7E8E6CC
:1035A000F0E068941590159135916591959105908D
:1035B0007FE27395E118F10A430B560BC90BD00952
:1035C000C0F7E10CF11E431F561FC91FD01D7EF42A
:1035D000703311F48A95E6CFE894015030F0080F6B
:1035E0000AF40027021708F4202F2395022F7A33BC
:1035F00028F079E37D932A95E9F710C07D932A9509
:1036000089F6069497956795379517951794E1185D
:10361000F10A430B560BC90BD00998F023957E9104
:1036200073957A3308F070E37C932013B8F77E919A
:1036300070617D9330F0839571E37D9370E32A95FB
:10364000E1F71124EF90FF900F911F91CF91DF913F
:10365000992787FD909508950E94311B08F481E019
:103660000895990F0008550FAA0BE0E8FEEF161613
:103670001706E807F907C0F012161306E407F50766
:1036800098F0621B730B840B950B39F40A2661F0DA
:10369000232B242B252B21F408950A2609F4A1407D
:1036A000A6958FEF811D811D08950E94681B0C94C3
:1036B000D91B0E94CB1B38F00E94D21B20F095230F
:1036C00011F00C94C21B0C94C81B11240C940D1CFB
:1036D0000E94EA1B70F3959FC1F3950F50E0551FB0
:1036E000629FF001729FBB27F00DB11D639FAA2757
:1036F000F00DB11DAA1F649F6627B00DA11D661FA6
:10370000829F2227B00DA11D621F739FB00DA11DC6
:10371000621F839FA00D611D221F749F3327A00D80
:10372000611D231F849F600D211D822F762F6A2F1C
:1037300011249F5750409AF0F1F088234AF0EE0F81
:10374000FF1FBB1F661F771F881F91505040A9F7AE
:103750009E3F510580F00C94C21B0C940D1C5F3FE2
:10376000E4F3983ED4F3869577956795B795F795EA
:10377000E7959F5FC1F7FE2B880F911D9695879562
:1037800097F9089597F99F6780E870E060E00895E1
:103790009FEF80EC089500240A9416161706180669
:1037A0000906089500240A94121613061406050645
:1037B0000895092E0394000C11F4882352F0BB0FD6
:1037C00040F4BF2B11F460FF04C06F5F7F4F8F4F39
:1037D0009F4F089557FD9058440F551F59F05F3F74
:1037E00071F04795880F97FB991F61F09F3F79F023
:1037F00087950895121613061406551FF2CF4695A5
:10380000F1DF08C0161617061806991FF1CF869526
:103810007105610508940895E894BB27662777270A
:10382000CB0197F90895052E97FB1EF400940E9492
:103830002A1C57FD07D00E94741C07FC03D04EF4CD
:103840000C942A1C50954095309521953F4F4F4F31
:103850005F4F089590958095709561957F4F8F4F3C
:103860009F4F08950E94961CA59F900DB49F900DA8
:10387000A49F800D911D112408952F923F924F9285
:103880005F926F927F928F929F92AF92BF92CF92F0
:10389000DF92EF92FF920F931F93CF93DF93CDB7F9
:1038A000DEB7CA1BDB0B0FB6F894DEBF0FBECDBF71
:1038B00009942A88398848885F846E847D848C8442
:1038C0009B84AA84B984C884DF80EE80FD800C814B
:1038D0001B81AA81B981CE0FD11D0FB6F894DEBF2E
:1038E0000FBECDBFED010895A1E21A2EAA1BBB1B8E
:1038F000FD010DC0AA1FBB1FEE1FFF1FA217B307BC
:10390000E407F50720F0A21BB30BE40BF50B661FD1
:10391000771F881F991F1A9469F760957095809595
:1039200090959B01AC01BD01CF010895A29FB0010C
:10393000B39FC001A39F700D811D1124911DB29FE3
:10394000700D811D1124911D0895DB018F939F93AC
:103950000E94321CBF91AF91A29F800D911DA39F29
:10396000900DB29F900D11240895991B79E004C029
:10397000991F961708F0961B881F7A95C9F78095AE
:10398000089597FB072E16F4009407D077FD09D011
:103990000E94D51C07FC05D03EF4909581959F4F61
:1039A0000895709561957F4F0895AA1BBB1B51E147
:1039B00007C0AA1FBB1FA617B70710F0A61BB70B9F
:1039C000881F991F5A95A9F780959095BC01CD0144
:1039D0000895EE0FFF1F0590F491E02D09940F93C9
:1039E0001F93CF93DF938230910510F482E090E033
:1039F000E0914406F091450630E020E0B0E0A0E020
:103A0000309799F42115310509F44AC0281B390B68
:103A100024303105D8F58A819B816115710589F1C2
:103A2000FB0193838283FE0111C040815181028199
:103A3000138148175907E0F04817590799F4109770
:103A400061F012960C93129713961C933296CF0145
:103A5000DF91CF911F910F91089500934406109329
:103A60004506F4CF2115310551F04217530738F0C0
:103A7000A901DB019A01BD01DF01F801C1CFEF010E
:103A8000F9CF9093450680934406CDCFFE01E20F17
:103A9000F31F819391932250310939832883D7CF23
:103AA0002091420630914306232B41F420910201DC
:103AB0003091030130934306209342062091000188
:103AC000309101012115310541F42DB73EB74091E8
:103AD000040150910501241B350BE0914206F09141
:103AE0004306E217F307A0F42E1B3F0B28173907F4
:103AF00078F0AC014E5F5F4F2417350748F04E0F4A
:103B00005F1F5093430640934206819391939FCF4A
:103B1000F0E0E0E09CCFCF93DF930097E9F0FC0169
:103B2000329713821282A0914406B0914506ED01AE
:103B300030E020E01097A1F420813181820F931FA3
:103B400020914206309143062817390709F061C0D9
:103B5000F0934306E0934206DF91CF910895EA0186
:103B6000CE17DF07E8F54A815B819E0141155105BB
:103B7000B1F7E901FB83EA8349915991C40FD51F3D
:103B8000EC17FD0761F4808191810296840F951FE7
:103B9000E90199838883828193819B838A83F0E002
:103BA000E0E012968D919C9113970097B9F52D91B5
:103BB0003C911197CD010296820F931F20914206EE
:103BC000309143062817390739F6309751F510928E
:103BD000450610924406B0934306A0934206BCCF1C
:103BE000D383C28340815181840F951FC817D907A1
:103BF00061F44E5F5F4F88819981480F591F51834F
:103C000040838A819B81938382832115310509F04A
:103C1000B0CFF0934506E09344069ECFFD01DC0152
:103C2000C0CF13821282D7CFB0E0A0E0EAE1FEE17C
:103C30000C943F1C8C01009751F4CB010E94EF1CA7
:103C40008C01C801CDB7DEB7E0E10C945B1CFC0130
:103C5000E60FF71F9C0122503109E217F30708F421
:103C60009DC0D901CD91DC911197C617D70798F067
:103C7000C530D10530F3CE0104978617970708F3B6
:103C8000C61BD70B2297C193D1936D937C93CF0121
:103C90000E948B1DD6CF5B01AC1ABD0A4C018C0E65
:103CA0009D1EA0914406B0914506512C412CF12C4B
:103CB000E12C109731F580914206909143068815CA
:103CC000990509F05CC04616570608F058C0809167
:103CD000000190910101009741F48DB79EB740918A
:103CE000040150910501841B950BE817F90708F0B2
:103CF00055C0F0934306E0934206F9017183608357
:103D0000A0CF8D919C91119712966C90129713965B
:103D10007C901397A815B90559F56C0142E0C40EC3
:103D2000D11CCA14DB0420F1AC014A195B09DA0189
:103D30001296159780F06282738251834083D90175
:103D40006D937C93E114F10471F0D7011396FC9309
:103D5000EE93129776CF22968C0F9D1FF9019183D7
:103D60008083F301EFCFF0934506E093440669CFDB
:103D70004816590608F42C017D01D3019ACFCB01D6
:103D80000E94EF1C7C01009749F0AE01B8010E942F
:103D9000D11EC8010E948B1D870153CF10E000E0A7
:103DA00050CFFB01DC0102C001900D924150504008
:103DB000D8F70895FB01DC018D9101908019011065
:103DC000D9F3990B0895FB01DC0101900D920020BD
:103DD000E1F70895F894FFCF000046068000000048
:103DE00000009814A506A2069F0600000000C81453
:103DF0000107FE06FB06000000009406BA09BF0991
:103E00009206000000003E08F807F507F2070000E0
:103E100000000A036A0297025703C802A602BA0208
:103E2000000000002D0D980595059205000000008A
:103E3000700D310BAC04A90400000000B513730E23
:103E40009C06990600000000D704F60FA4040000A9
:103E50000000190DAF04AC04A9044D6573736167CC
:103E6000652066726F6D2064657669636520647293
:103E70006F707065643A206D657373616765206C5F
:103E80006172676572207468616E2062756666652E
:103E9000722E00526576310061726D006772697032
:103EA00070657200466C6173682072656164206E93
:103EB0006F7420696D706C00427566666572206F64
:103EC000766572666C6F7720707562006D6F7665CF
:103ED0005F67726F75702F66616B655F636F6E747D
:103EE000726F6C6C65725F6A6F696E745F73746118
:043EF0007465730082
:107E0000112484B714BE81FFF0D085E080938100F7
:107E100082E08093C00088E18093C10086E0809377
:107E2000C20080E18093C4008EE0C9D0259A86E02C
:107E300020E33CEF91E0309385002093840096BBD3
:107E4000B09BFECF1D9AA8958150A9F7CC24DD24C4
:107E500088248394B5E0AB2EA1E19A2EF3E0BF2EE7
:107E6000A2D0813461F49FD0082FAFD0023811F036
:107E7000013811F484E001C083E08DD089C08234E0
:107E800011F484E103C0853419F485E0A6D080C0E4
:107E9000853579F488D0E82EFF2485D0082F10E0AE
:107EA000102F00270E291F29000F111F8ED06801E7
:107EB0006FC0863521F484E090D080E0DECF843638
:107EC00009F040C070D06FD0082F6DD080E0C81688
:107ED00080E7D80618F4F601B7BEE895C0E0D1E017
:107EE00062D089930C17E1F7F0E0CF16F0E7DF06D8
:107EF00018F0F601B7BEE89568D007B600FCFDCFD4
:107F0000A601A0E0B1E02C9130E011968C91119780
:107F100090E0982F8827822B932B1296FA010C0160
:107F200087BEE89511244E5F5F4FF1E0A038BF0790
:107F300051F7F601A7BEE89507B600FCFDCF97BE46
:107F4000E89526C08437B1F42ED02DD0F82E2BD052
:107F50003CD0F601EF2C8F010F5F1F4F84911BD097
:107F6000EA94F801C1F70894C11CD11CFA94CF0C13
:107F7000D11C0EC0853739F428D08EE10CD085E9AC
:107F80000AD08FE07ACF813511F488E018D01DD067
:107F900080E101D065CF982F8091C00085FFFCCF94
:107FA0009093C60008958091C00087FFFCCF809118
:107FB000C00084FD01C0A8958091C6000895E0E648
:107FC000F0E098E1908380830895EDDF803219F02E
:107FD00088E0F5DFFFCF84E1DECF1F93182FE3DFCA
:107FE0001150E9F7F2DF1F91089580E0E8DFEE27F6
:047FF000FF270994CA
:027FFE00040479
:00000001FF
