:100000000C94E3000C940B010C940B010C940B0169
:100010000C940B010C940B010C940B010C940B0130
:100020000C940B010C940B010C940B010C940B0E13
:100030000C940B010C940B010C940B010C940B0110
:100040000C94C10D0C940B010C948F0D0C94690D44
:100050000C940B010C940B010C940B010C940B01F0
:100060000C940B010C940B017374645F6D736773D4
:100070002F54696D650063643731363663373463F6
:1000800035353263333131666263633266653561BB
:1000900037626332383900726F7373657269616CED
:1000A0005F6D7367732F546F706963496E666F007D
:1000B00030616435316638386663343438393266D5
:1000C00038633130363834303737363436303035BF
:1000D00000726F7373657269616C5F6D7367732F04
:1000E0004C6F6700313161626437333163323539C7
:1000F00033333236316364363138336264313264DB
:100100003632393500726F7373657269616C5F6D79
:100110007367732F52657175657374506172616D89
:1001200000396630653938626461363539383139BD
:1001300038366464663533616661376134306534FE
:1001400039007374645F6D7367732F55496E743132
:10015000360031646637396564663230386236326B
:100160003966653662383139323361353434353584
:1001700032640000000008000201000003040700D0
:100180000000000000000000000000250028002BF7
:100190000000000000240027002A000404040404D6
:1001A0000404040202020202020303030303030124
:1001B00002040810204080010204081020010204FB
:1001C00008102000C70E11241FBECFEFD8E0DEBFFD
:1001D000CDBF11E0A0E0B1E0E6EAF7E202C0059091
:1001E0000D92AE3DB107D9F725E0AEEDB1E001C00B
:1001F0001D92AE39B207E1F710E0C3EED0E004C0C3
:100200002197FE010E94A911C23ED107C9F70E94A1
:10021000AA0F0C94D1130C940000CF93DF9300D05D
:1002200000D01F92CDB7DEB72EE231E03A832983AA
:1002300023E02B837D836C83DC01ED91FC910190A5
:10024000F081E02DAE014F5F5F4F67E070E00995F0
:100250000F900F900F900F900F90DF91CF91089516
:10026000AF92BF92CF92DF92EF92FF920F931F93C4
:10027000CF93DF936C017B018B01040F151FEB0102
:100280005E01AE18BF08C017D10759F06991D601B9
:10029000ED91FC910190F081E02DC6010995892B2B
:1002A00079F7C501DF91CF911F910F91FF90EF90EA
:1002B000DF90CF90BF90AF900895FC01538D448D97
:1002C000252F30E0842F90E0821B930B541710F001
:1002D000CF96089501970895FC01918D828D98170E
:1002E00061F0A28DAE0FBF2FB11D5D968C91928DE6
:1002F0009F5F9F73928F90E008958FEF9FEF089517
:10030000FC01918D828D981731F0828DE80FF11DDF
:10031000858D90E008958FEF9FEF0895FC01918DFA
:10032000228D892F90E0805C9F4F821B91098F73F3
:10033000992708958DE092E00E948E0121E0892B9B
:1003400009F420E0822F089580E090E0892B29F0C5
:100350000E949A0181110C9400000895FC01A48D63
:10036000A80FB92FB11DA35ABF4F2C91848D90E0D7
:1003700001968F739927848FA689B7892C93A089BA
:10038000B1898C91837080648C93938D848D981344
:1003900006C00288F389E02D80818F7D80830895D7
:1003A000EF92FF920F931F93CF93DF93EC0181E0C5
:1003B000888F9B8D8C8D98131AC0E889F98980816C
:1003C00085FF15C09FB7F894EE89FF896083E8899F
:1003D000F98980818370806480839FBF81E090E091
:1003E000DF91CF911F910F91FF90EF900895F62E1E
:1003F0000B8D10E00F5F1F4F0F731127E02E8C8DB8
:100400008E110CC00FB607FCFACFE889F9898081FC
:1004100085FFF5CFCE010E94AE01F1CFEB8DEC0F41
:10042000FD2FF11DE35AFF4FF0829FB7F8940B8F19
:10043000EA89FB8980818062CFCFCF93DF93EC0183
:10044000888D8823B9F0AA89BB89E889F9898C91BC
:1004500085FD03C0808186FD0DC00FB607FCF7CF78
:100460008C9185FFF2CF808185FFEDCFCE010E9478
:10047000AE01E9CFDF91CF91089590E0FC01ED58F6
:10048000FE4F2491FC01E155FE4F3491FC01E556ED
:10049000FE4FE491EE23C9F0222339F0233001F11D
:1004A000A8F4213019F1223029F1F0E0EE0FFF1FFE
:1004B000E957FE4FA591B4918FB7F894EC91611173
:1004C00026C030953E233C938FBF08952730A9F076
:1004D0002830C9F0243049F7809180008F7D03C017
:1004E000809180008F7780938000DFCF84B58F77F5
:1004F00084BDDBCF84B58F7DFBCF8091B0008F773B
:100500008093B000D2CF8091B0008F7DF9CF3E2B89
:10051000DACF3FB7F8948091E4019091E501A09182
:10052000E601B091E70126B5A89B05C02F3F19F061
:100530000196A11DB11D3FBFBA2FA92F982F882763
:10054000BC01CD01620F711D811D911D42E0660F3E
:10055000771F881F991F4A95D1F708952FB7F894F0
:100560006091E0017091E1018091E2019091E301DD
:100570002FBF08958E549D4FFC018081089582E520
:1005800091E0089582E491E00895FC0185859685C7
:100590000895AF92BF92CF92DF92EF92FF920F93A6
:1005A0001F93CF93DF93643671054CF0FC01EE543A
:1005B000FD4F2081C12CD12C222309F461C0DA0126
:1005C0006B01EC01BC016D5C7E4FED91FC910190E3
:1005D000F081E02DCA0109958C017E0124EDE21A1B
:1005E0002EEFF20A2FEFD7012C93FE01E35DFE4FB1
:1005F0002EEF208331968083319690833196890F38
:10060000809580833196C0821696DC9245E050E05A
:1006100030E020E0C80107964817590730F461918F
:10062000260F311D4F5F5F4FF7CF085F1F4F8C0FB5
:100630009D1FFC01E45DFE4F209520830931B1E050
:100640001B07A8F468015701C5018E199F0980177F
:100650009107B4F48A819B81F50161915F01DC010E
:10066000ED91FC910190F081E02D0995EDCF66E7C9
:1006700071E0CE010E940D01CC24CA94DD24DA94ED
:10068000C601DF91CF911F910F91FF90EF90DF9006
:10069000CF90BF90AF9008950F931F93CF93DF93A8
:1006A000CDB7DEB72A970FB6F894DEBF0FBECDBF29
:1006B0008C0182E291E09A8389831B821C821D82D5
:1006C0001E821F82188619861A86D801ED91FC9128
:1006D0000190F081E02DAE014F5F5F4F6AE070E066
:1006E000C80109950E94AE02F80160877187828770
:1006F00093872A960FB6F894DEBF0FBECDBFDF9169
:10070000CF911F910F910895CF92DF92EF92FF92B8
:10071000DC011D921D921D921C921397FB0130E08B
:1007200020E0419150E0022E02C0440F551F0A9470
:10073000E2F7052E000C660B770BCD90DD90ED9067
:10074000FC9013974C295D296E297F294D935D9369
:100750006D937C931397285F3F4F2032310509F743
:10076000FF90EF90DF90CF900895FC01408351837C
:10077000128213820895CF92DF92EF92FF920F932D
:100780001F93FC01A281B381A032F2E0BF070CF0FD
:100790003DC08091BA02E8E8CE2ED12CC81AD1080B
:1007A00087FDD394CC0CDD1CCC0CDD1C0D2C000C77
:1007B000EE08FF088091BB0208E512E0081B110952
:1007C00087FD1395000F111F000F111F012E000C44
:1007D000220B330BA90198012C193D094E095F0921
:1007E000A53BB10514F0A4EBB0E0B7FF02C0B0E048
:1007F000A0E00E942C1124EB30E040E050E00E9489
:100800000211C20ED31EE41EF51ED601E091B902FC
:10081000EC3080F52091BA0288E890E0821B9109C3
:1008200027FD9395880F991F880F991FA817B9075F
:1008300084F02091BB0288E592E0821B910927FD9C
:100840009395880F991F880F991FA817B9070CF463
:10085000CD010297880F991F4FB7F8942E2F30E0E3
:10086000F901EE0FFF1FE20FF31FE851FE4F9283D5
:1008700081834FBF1F910F91FF90EF90DF90CF903A
:100880000895FB01208130E0FC0133832283FB01CA
:100890004181342BFC013383228382E090E0089570
:1008A0000F931F93CF93DF938C01EC012796CE011A
:1008B0000E944104D8011B96ED91FC91CE01DF917D
:1008C000CF911F910F910994FC012281FB0120839C
:1008D000FC018381FB01818382E090E00895CF9346
:1008E000DF93DC0116968D919C911797FB0116966C
:1008F0004D915C91179714962D913C911597453920
:100900005105CCF46491240F351FE90168831696D4
:100910002D913C91179731961496CD91DC911597B6
:10092000C20FD31F48812F5F3F4F17963C932E93E2
:1009300016974111DCCF16962D913C9117972539CA
:10094000310534F022E030E019963C932E9318974D
:1009500014962D913C91820F931FDF91CF910895B2
:100960000C946F0441110C946F04CB01089581E243
:1009700091E0089585E091E0089584EE90E0089577
:1009800081ED90E008954F925F926F927F928F92E7
:100990009F92AF92BF92EF92FF920F931F93CF93CC
:1009A000DF9300D000D0CDB7DEB77C018B01FB0117
:1009B0008191BF01F7018283CE0101960E948403D9
:1009C00089819A81AB81BC814C015D01F5E08F0E7C
:1009D000911CA11CB11CA8014C5F5F4FFA0125E0DE
:1009E00030E02901712C612C481459046A047B04FD
:1009F00028F4618161932F5F3F4FF3CFF801E80F37
:100A0000F91F1482F7015483438305960F900F90CA
:100A10000F900F90DF91CF911F910F91FF90EF906A
:100A2000BF90AF909F908F907F906F905F904F900E
:100A3000089580EB90E0089587E990E008954F9243
:100A40005F926F927F928F929F92AF92BF92CF925E
:100A5000DF92EF92FF920F931F93CF93DF93CDB767
:100A6000DEB72C970FB6F894DEBF0FBECDBF7C016A
:100A70008B01DB018C9190E0F701938382831196C7
:100A80002C91922B938382836E5F7F4FCE010196D0
:100A90000E94840389809A80AB80BC802401350148
:100AA000F6E04F0E511C611C711C98012B5F3F4FEB
:100AB000F90186E090E0AC0170E060E04415550576
:100AC0006605770520F4418141930196F4CFB40186
:100AD0006A5F7F4FF801E80DF91D1582D701159661
:100AE0003C932E931497600F711FCE0105960E94C0
:100AF0008403BAE08B0E911C4D805E806F807884F9
:100B0000C401092C000CAA0BBB0B5C016D01A40CE9
:100B1000B51CC61CD71CF801E80DF91DAF01401B20
:100B2000510B70E060E04A155B056C057D0538F4FB
:100B30002191AF0142505109DA012C93EFCF480CBB
:100B4000591CB801640D751DFB0131971082C40159
:100B50000197800F911FF70197838683CE01099635
:100B60000E94840392012C5F3F4F89849A84AB8456
:100B7000BC84A901032E000C660B770B480D591D90
:100B80006A1D7B1DF801E20FF31FCF01801B910B43
:100B9000B0E0A0E084179507A607B70728F4819175
:100BA000DF0112978C93F1CFC901880D991DF801CF
:100BB000E80FF91FDF0111971C9221503109020F34
:100BC000131FD70119961C930E9318972181428108
:100BD00050E070E060E0BA0155274427522B208195
:100BE000422B2381722BF7014287538764877587D5
:100BF00004962C960FB6F894DEBF0FBECDBFDF91E2
:100C0000CF911F910F91FF90EF90DF90CF90BF9009
:100C1000AF909F908F907F906F905F904F900895CE
:100C200086E790E0089588E690E00895FC01DB01F6
:100C30004C9150E070E060E042835383648375839D
:100C400011968C911197582B42835383648375833B
:100C500012968C911297682B428353836483758319
:100C600013968C911397782B4283538364837583F7
:100C700014964C91149750E070E060E046835783DF
:100C80006087718715968C911597582B46835783EB
:100C90006087718716968C911697682B46835783C9
:100CA0006087718717968C91782B4683578360876E
:100CB000718788E090E00895DC01FB0112968C9129
:100CC0001297808313968C911397818314968C913D
:100CD0001497828315968C911597838316968C9121
:100CE0001697848317968C911797858318968C9105
:100CF0001897868319968C91878388E090E00895F1
:100D0000FC01848195810C944B12CF93DF93EC010D
:100D10000E948006CE01DF91CF910C944B122F924E
:100D20003F924F925F926F927F928F929F92AF927B
:100D3000BF92CF92DF92EF92FF920F931F93CF93C8
:100D4000DF93CDB7DEB72E970FB6F894DEBF0FBE98
:100D5000CDBF8C016B01DB018D909D90AD90BC905F
:100D6000FC0182819381A481B58188159905AA052A
:100D7000BB0570F4B401660F771F660F771F82857D
:100D800093850E94D412D8011B969C938E931A9738
:100D9000F80182829382A482B582C60140E050E0CD
:100DA000BA01A4E0EA2EF12C98012A5F3F4FDC0142
:100DB0001596EC91159716964C901697512C712C10
:100DC000612C3201552444245E2A1496EC91149728
:100DD0004E2A1796EC917E2AD7011701E4E02E0ED9
:100DE000311C71010496F80182809380A480B58043
:100DF000481559056A057B05A8F446825782608626
:100E000071861497A284B384AA0DBB1DE4E0BE2EA4
:100E1000F90101900D92BA94E1F74F5F5F4F6F4F68
:100E20007F4FC5CF84859585A685B78584159505A3
:100E3000A605B70570F4B201660F771F660F771F1E
:100E4000848995890E94D412D80155969C938E93DB
:100E50005497F8014486558666867786C601820DCA
:100E6000931D412C512C32011C019801205F3F4FF2
:100E7000DC0111966C91119712968C901297912C1F
:100E8000B12CA12C540199248824962A6C91862A8D
:100E900013966C91B62AB4E0EB0EF11CF801448570
:100EA0005585668577854416550666067706C0F42F
:100EB000808A918AA28AB38ABC0162197309A489C3
:100EC000B589A60FB71F64E0F90101900D926A95EC
:100ED000E1F7BFEF4B1A5B0A6B0A7B0A0496C8CF97
:100EE00086899789A08DB18D88159905AA05BB05BE
:100EF00060F4B401660F771F848D958D0E94D41223
:100F0000D8015D969C938E935C97F801868A978AA8
:100F1000A08EB18E412C512C32011801FAE12F0E16
:100F2000311CF80186899789A08DB18D4816590624
:100F30006A067B0608F05CC0B6016E0D7F1DCE010F
:100F400001960E94840397012C5F3F4F3E872D87B7
:100F500089809A80AB80BC80C901032E000CAA0B4B
:100F6000BB0BAC01BD01480D591D6A1D7B1D498796
:100F70005A876B877C87F901EC0DFD1D9F012C19A9
:100F80003D09B90190E080E029853A854B855C8573
:100F9000621773078407950728F42191DF011297E0
:100FA0002C93ECCFED84FE84E80CF91CF601EE0DD9
:100FB000FF1D319710828D859E8501978C0D9D1D9B
:100FC000D8015B969C938E935A97C201880F991F04
:100FD0005C96ED91FC91E80FF91FD1018D919C91E8
:100FE00091838083BFEF4B1A5B0A6B0A7B0A99CF10
:100FF000C7012E960FB6F894DEBF0FBECDBFDF91AE
:10100000CF911F910F91FF90EF90DF90CF90BF9005
:10101000AF909F908F907F906F905F904F903F9098
:101020002F9008952F923F924F925F926F927F92EE
:101030008F929F92AF92BF92CF92DF92EF92FF92E8
:101040000F931F93CF93DF93CDB7DEB7E0970FB623
:10105000F894DEBF0FBECDBF8C010E94AE022B0103
:101060003C01980129543D4F3E8F2D8FF90180811D
:101070009181A281B381A3019201281B390B4A0BF4
:101080005B0BDA01C901893F9A42A105B10510F055
:1010900035971082480148E5841A4DEF940AD4012F
:1010A0008D919C91892B79F0F801E554FD4F808159
:1010B0009181A281B38184159505A605B70518F421
:1010C000F40111821082980120553D4F3A8F298FEB
:1010D000A80144555D4F5C8F4B8F180154E1250EDC
:1010E000311CC8018E549D4F9AA389A3D801A054E6
:1010F000BD4FB8A7AFA3F801E154FD4FFAA7E9A788
:101100005801F6E5AF1AFDEFBF0A2250310938A3A6
:101110002F8FA80145545D4F5CA74BA7D301C20197
:101120004496A11DB11D8DA79EA7AFA7B8ABD8014E
:1011300012968D919C91DC01ED91FC910284F385D6
:10114000E02D09959C0197FD01C3E98DFA8D808101
:101150009181820F931F91838083D4014D915C9183
:10116000119747305105E1F4EF8DF8A1808191810D
:10117000AC014F5F5F4F51834083800F911FDC01B3
:1011800054962C93F50180819181019791838083FE
:10119000892B69F688E090E0D4018D939C93C7CFAA
:1011A0004115510509F03FC02F3F310589F481E019
:1011B00090E0F401918380832DA53EA54FA558A909
:1011C000ABA5BCA52D933D934D935C931397AFCFE7
:1011D0000E94AE0264197509860997096630710587
:1011E0008105910508F4A3CFF801EE54FD4F10825C
:1011F0008EEF9FEFE0960FB6F894DEBF0FBECDBF27
:10120000DF91CF911F910F91FF90EF90DF90CF90E2
:10121000BF90AF909F908F907F906F905F904F9016
:101220003F902F9008954130510581F482E090E085
:101230002E3F310571F11D921C92E9A1FAA1808126
:10124000811175CFC8010E944C0371CF4230510506
:1012500089F4D5012D933C93EF8DF8A11182108272
:1012600083E090E0D4018D939C93E98DFA8D3183D6
:1012700020835DCF4330510581F4322F2227D501E1
:101280008D919C911197280F391F2D933C9384E0E9
:1012900090E0F401918380834ACF4430510571F48A
:1012A00060E071E00E9481118F3F910519F485E0A3
:1012B00090E072CFF4011182108239CF4530510590
:1012C00071F4AB8DBC8D2D933C9386E090E0F401DE
:1012D00091838083A98DBA8D2D933C9328CF46307E
:1012E000510591F4322F2227EB8DFC8D8081918165
:1012F000280F391F3183208387E090E08D939C93E2
:10130000F5018081918144CF4830510509F00FCF1C
:101310001D921C9260E071E00E9481118F3F910547
:1013200009F005CFAB8DBC8DED91FC91309709F0A4
:101330003EC1C8010E944C038AE091E09A838983F0
:101340001C821B828EEA91E09E838D8398878F8317
:101350009A8789871B861C861D861E866801BCEBC2
:10136000CB1ABDEFDB0A7801EAE8EE1AEDEFFE0AD0
:1013700026E1222E21E0322ED601AD90BC90A114A0
:10138000B10409F470C01A8A198A388A2F861E8A15
:101390001D8A86E990E00E94AF119C8B8B8BFC012B
:1013A00010828B569F4FDC011C92F501858196813E
:1013B0009C838B83608171814281CE010F960E9454
:1013C000B2049E838D83D601ED91FC91838194813B
:1013D000DC01ED91FC910480F581E02D0995BC01C3
:1013E000CE010F960E946F0498878F83D601ED91EE
:1013F000FC9183819481DC01ED91FC910680F78161
:10140000E02D0995BC01CE010F960E946F049A87CA
:10141000898728E131E040E050E02B873C874D8709
:101420005E87D601ED91FC9161857285D801ED91C1
:10143000FC910190F081E02DAE014F5F5F4FC8013C
:10144000099589899A896FEA71E08130910521F0C7
:10145000029729F463EC71E0C8010E940D01CE01EE
:101460000F960E948006B2E0CB0ED11CEC14FD0456
:1014700009F082CF96E1A92E91E0B92EF701C08044
:10148000D180C114D10409F477C01A8A198AB88AA4
:10149000AF861E8A1D8A86E990E00E94AF119C8B60
:1014A0008B8BDC011C928B569F4FFC011082D60166
:1014B00012968D919C9113979C838B8314966D91BA
:1014C0007C91159716964C91CE010F960E94B2040E
:1014D0009E838D83F70180819181DC01ED91FC91E8
:1014E0000480F581E02D0995BC01CE010F960E9484
:1014F0006F0498878F83F70180819181DC01ED91E2
:10150000FC910680F781E02D0995BC01CE010F9674
:101510000E946F049A87898728E131E040E050E01B
:101520002B873C874D875E87D801ED91FC91C08069
:10153000D180F70180819181DC01ED91FC910280E5
:10154000F381E02D0995AE014F5F5F4FBC01C801EB
:10155000F601099589899A896FEA71E081309105D0
:1015600021F0029729F463EC71E0C8010E940D019B
:10157000CE010F960E948006F2E0EF0EF11C8E1451
:101580009F0409F07BCFF801EE54FD4F81E080838A
:1015900031964082518262827382AD8DBE8D4D92B2
:1015A0005D926D927C9213978FEF9FEF23CEEA307E
:1015B000F10509F0A3C082E291E09A8389831B823E
:1015C0001C821D821E821F82188619861A860E941E
:1015D000AE02F801C084D184E284F3849B01AC01A3
:1015E0002C193D094E095F0969017A01B101CE014B
:1015F00001960E941606C701B60128EE33E040E0CE
:1016000050E00E94341169017A019B01AC018B8189
:101610009C81AD81BE818C0D9D1DAE1DBF1D8B8338
:101620009C83AD83BE8360E472E48FE090E00E940F
:101630006511CF80D884E984FA84DC01CB018C0D5C
:101640009D1DAE1DBF1D8F839887A987BA870E94F5
:10165000AE02CF80D884E984FA8436E3D31A35E623
:10166000E30A34ECF30A28EE33E040E050E00E9455
:1016700034112BA33CA34DA35EA39B01AC0160E4FA
:1016800072E48FE090E00E946511A7019601261B8D
:10169000370B480B590BCA01B901CB80DC80ED80B8
:1016A000FE8031E0C31AD108E108F1082BA13CA16A
:1016B0004DA15EA1C21AD30AE40AF50A20E03AEC71
:1016C0004AE95BE30E9434112C0D3D1D4E1D5F1D48
:1016D000D8011C962D933D934D935C931F97F80171
:1016E000608B718B828B938B0E94AE02AD8DBE8D11
:1016F0006D937D938D939C93139719CDE630F105EF
:1017000051F4B1018FA198A50E948F0681E0E9A54F
:10171000FAA580830CCDEB30F10521F4A9A1BAA183
:101720001C9205CDE952FF4FEE0FFF1FE00FF11F96
:1017300080819181009709F4FACCDC01ED91FC9154
:101740000190F081E02DB1010995F1CCF801EE5442
:10175000FD4F8081882301F17801BDE4EB1ABDEFD4
:10176000FB0AF70180819181A281B381A3019201DB
:10177000281B390B4A0B5B0BDA01C901853C9940E8
:10178000A105B10548F0C8010E944C03D7014D9254
:101790005D926D927C92139790E080E02BCD4F92FA
:1017A0005F926F927F928F929F92AF92BF92CF92F1
:1017B000DF92EF92FF920F931F93CF93DF93EC0191
:1017C0007B018A81FB0180838B8181838C81828371
:1017D0008D8183833496412C512C320104E010E03A
:1017E0009F012F5F3F4FCF010296DF011396A801A3
:1017F0000C5F1F4F8A809B80AC80BD8048145904C9
:101800006A047B04C8F4AA85BB85A40FB51F14978E
:101810004C9111962C91119712969C9112971396B8
:101820008C9140832183928383838FEF481A580AD7
:10183000680A780A3496D4CF4C8540834D85F901E7
:1018400040832E85FC0120838F858C93F701E00F68
:10185000F11F412C512C3201AF019F012F5F3F4FEF
:10186000CF010296DF0113960C5F1F4F8C849D847D
:10187000AE84BF84481459046A047B04D8F4CF01B1
:10188000841B950BAC89BD89A80FB91F3C9111969B
:101890002C91119712969C91129713968C913083EC
:1018A0002183928383838FEF481A580A680A780A43
:1018B0003496D3CF4E8940834F89F9014083288DD8
:1018C000FC012083898D8C93412C512C32018E890F
:1018D0009F89A88DB98D481659066A067B0680F542
:1018E0005201AA0CBB1CEC8DFD8DEA0DFB1DA081E5
:1018F000B181FD0101900020E9F731976F01CA1A0B
:10190000DB0AA60170E060E0C701800F911F0E9412
:10191000B5030C5F1F4F8C8D9D8DA80EB91EF50170
:1019200060817181A601C701800F911F0E949113F0
:101930000C0D1D1DFFEF4F1A5F0A6F0A7F0AC7CFFC
:10194000C801DF91CF911F910F91FF90EF90DF9031
:10195000CF90BF90AF909F908F907F906F905F904F
:101960004F900895EF92FF920F931F93CF93DF93C1
:101970008C017B01DC0112962C911297FB012193C3
:10198000CF011396ED91FC91EF0109900020E9F74A
:101990002197CE1BDF0BAE0170E060E00E94B50323
:1019A000D80113966D917C91AE01C70105960E94F6
:1019B0009113CE010596DF91CF911F910F91FF906A
:1019C000EF900895CF92DF92EF92FF920F931F93C3
:1019D000CF93DF936C01EB01DC0112968C9112978F
:1019E000888313968C91139789831496ED91FC91BB
:1019F000DF010D900020E9F78D01015011090E1B48
:101A00001F0BA80170E060E0CE0102960E94B503B2
:101A1000F60164817581A801CE0106960E9491139A
:101A2000C8010696F601A681B781FD01019000204C
:101A3000E9F731977F01EA1AFB0AA70170E060E03D
:101A40008C0F9D1F0E94B503065F1F4FD60116968F
:101A50006D917C91A701CE01800F911F0E9491137F
:101A60000E0D1F1DF601A085B185FD01019000201E
:101A7000E9F731977F01EA1AFB0AA70170E060E0FD
:101A8000CE01800F911F0E94B5030C5F1F4FD6013E
:101A900018966D917C91A701CE01800F911F0E9435
:101AA0009113C701800F911FF6016285438534852C
:101AB0002585C80FD91F688349833A832B830496F1
:101AC000DF91CF911F910F91FF90EF90DF90CF901A
:101AD00008951F920F920FB60F9211242F933F93E8
:101AE0004F935F936F937F938F939F93AF93BF9326
:101AF000EF93FF938DE092E00E94AE01FF91EF9192
:101B0000BF91AF919F918F917F916F915F914F9115
:101B10003F912F910F900FBE0F901F9018951F921D
:101B20000F920FB60F9211242F938F939F93EF93E1
:101B3000FF93E0911D02F0911E028081E09123024B
:101B4000F091240282FD1BC09081809126028F5F5C
:101B50008F7320912702821741F0E0912602F0E076
:101B6000E35FFD4F958F80932602FF91EF919F9148
:101B70008F912F910F900FBE0F901F90189580811D
:101B8000F4CF1F920F920FB60F9211242F933F9311
:101B90008F939F93AF93BF938091E0019091E10168
:101BA000A091E201B091E3013091DF0123E0230F26
:101BB0002D3758F50196A11DB11D2093DF018093AB
:101BC000E0019093E101A093E201B093E3018091E1
:101BD000E4019091E501A091E601B091E701019641
:101BE000A11DB11D8093E4019093E501A093E6014E
:101BF000B093E701BF91AF919F918F913F912F914A
:101C00000F900FBE0F901F90189526E8230F029695
:101C1000A11DB11DD2CF1F920F920FB60F921124AA
:101C20002F933F934F935F936F937F938F939F93E4
:101C3000AF93BF93CF93DF93EF93FF938091DE0138
:101C4000C0910C02D0E087FF24C010928500109252
:101C500084008091DE018F5F8093DE018091DE0140
:101C6000082E000C990B8C179D0724F48091DE013F
:101C70008C30C4F18091840090918500049680346A
:101C80009C4908F47AC08091840090918500049664
:101C900076C08091DE01082E000C990B8C179D07F1
:101CA000C4F6E091DE018E2FEE0F990BFC01EE0FD2
:101CB000FF1FE80FF91FE851FE4F808186FFC9CF53
:101CC000E091DE018E2FEE0F990BFC01EE0FFF1F4E
:101CD000E80FF91FE851FE4F808160E08F730E948A
:101CE0003D02B7CF2091840030918500E091DE0164
:101CF0008E2FEE0F990BFC01EE0FFF1FE80FF91F5F
:101D0000E851FE4F81819281820F931F9093890049
:101D100080938800E091DE018E2FEE0F990BFC017D
:101D2000EE0FFF1FE80FF91FE851FE4F808186FF7D
:101D300011C0E091DE018E2FEE0F990BFC01EE0F2A
:101D4000FF1FE80FF91FE851FE4F808161E08F739C
:101D50000E943D02FF91EF91DF91CF91BF91AF9132
:101D60009F918F917F916F915F914F913F912F91B3
:101D70000F900FBE0F901F90189580E49CE99093F0
:101D80008900809388008FEF8093DE01E3CF10926B
:101D9000100210920F0288EE93E0A0E0B0E0809372
:101DA000110290931202A0931302B09314028AE3DB
:101DB00091E090930E0280930D0285EC90E0909359
:101DC0001A028093190284EC90E090931C02809395
:101DD0001B0280EC90E090931E0280931D0281EC28
:101DE00090E09093200280931F0282EC90E0909309
:101DF00022028093210286EC90E09093240280934B
:101E000023021092260210922702109228021092AA
:101E1000290288E591E09093BD028093BC028DE099
:101E200092E09093BF028093BE0280E091EEA0E02A
:101E3000B0E08093C0029093C102A093C202B0931D
:101E4000C30210926E058CE491E090937D0580931F
:101E50007C051092920510929305109294051092B1
:101E600095051092990510929805E0E0F5E0119221
:101E7000119285E0E233F807D1F7E2E3F5E0119241
:101E8000119285E0E436F807D1F7E0EDF2E0119227
:101E900083E0E83EF807D9F7E8EEF3E0119285E039
:101EA000E030F807D9F710927E0510927F05109266
:101EB0008005109281051092870510928605109278
:101EC00088051092890510928A0510928B05109250
:101ED00091051092900580910C028C30B8F591E03C
:101EE000980F90930C028093B90290E0FC01EE0FE2
:101EF000FF1FE80FF91FE851FE4F88EB9BE092832C
:101F000081838EE691E09093AB028093AA0282E6F1
:101F100091E09093B2028093B1021092B4021092B9
:101F2000B3028BEB93E09093B6028093B50281E00D
:101F300090E09093B8028093B70287ED91E0909380
:101F4000AF028093AE021092B00208958FEF80939B
:101F5000B902D7CF789484B5826084BD84B581609E
:101F600084BD85B5826085BD85B5816085BD809164
:101F70006E00816080936E001092810080918100DC
:101F800082608093810080918100816080938100D4
:101F9000809180008160809380008091B100846096
:101FA0008093B1008091B00081608093B0008091F7
:101FB0007A00846080937A0080917A0082608093B6
:101FC0007A0080917A00816080937A0080917A0013
:101FD000806880937A001092C100C091BE02D091B7
:101FE000BF02C090C002D090C102E090C202F09047
:101FF000C30260E079E08DE390E0A70196010E94C2
:1020000034112150310941095109569547953795A9
:102010002795E889F98982E08083C11481EED8068A
:10202000E104F10421F0211580E1380798F0E889F6
:10203000F989108260E874E88EE190E0A7019601CA
:102040000E94341121503109410951095695479593
:1020500037952795EC85FD853083EE85FF852083B8
:10206000188EEC89FD8986E08083EA89FB8980816E
:1020700080618083EA89FB89808188608083EA8926
:10208000FB89808180688083EA89FB8980818F7DDC
:102090008083109265051092640510926705109276
:1020A000660510926B0510926A05109269051092F0
:1020B0006805E2E3F5E090E080E021913191232B87
:1020C00009F09AC0FC01EE0FFF1FEE5CFA4F2AEAFE
:1020D00032E0318320838C599F4F9093AD028093DF
:1020E000AC028091B9028C3008F068C0EAEBF1E0F4
:1020F0002491E6EAF1E08491882399F090E0880F3A
:10210000991FFC01EF56FE4FA591B491FC01E957D0
:10211000FE4F859194918FB7F894EC91E22BEC935C
:102120008FBF8091B902282F30E0F901EE0FFF1F19
:10213000E20FF31FE851FE4F9081907C9B609083EB
:102140001092BA021092BB022CE0622F0E9475110D
:10215000829FB001112430E020E0AB01420F531FF9
:10216000FA01EE0FFF1FE40FF51FE851FE4F9081BB
:1021700096FD16C02F5F3F4F2C30310571F781114E
:102180000FC01092800082E0809381001092850041
:1021900010928400B19A80916F00826080936F00EA
:1021A000E091B9028E2F90E0FC01EE0FFF1FE80FC7
:1021B000F91FE851FE4F808180648083C0E0D0E049
:1021C0008CEB92E00E9412080E9489026B017C0154
:1021D0000E9489026C197D098E099F09683E73402F
:1021E00081059105A8F3209759F30E949A0188234D
:1021F00039F30E940000E4CF01968931910509F07E
:102200005CCF6FCF052E97FB1EF400940E9419112E
:1022100057FD07D00E94341107FC03D04EF40C94F4
:10222000191150954095309521953F4F4F4F5F4F75
:10223000089590958095709561957F4F8F4F9F4F32
:1022400008950E945611A59F900DB49F900DA49FD4
:10225000800D911D11240895B7FF0C9421110E9447
:102260002111821B930B0895A1E21A2EAA1BBB1BFE
:10227000FD010DC0AA1FBB1FEE1FFF1FA217B30752
:10228000E407F50720F0A21BB30BE40BF50B661F68
:10229000771F881F991F1A9469F76095709580952C
:1022A00090959B01AC01BD01CF010895A29FB001A3
:1022B000B39FC001A39F700D811D1124911DB29F7A
:1022C000700D811D1124911D0895DB018F939F9343
:1022D0000E942111BF91AF91A29F800D911DA39FDC
:1022E000900DB29F900D11240895991B79E004C0C0
:1022F000991F961708F0961B881F7A95C9F7809545
:10230000089597FB072E16F4009407D077FD09D0A7
:102310000E94951107FC05D03EF4909581959F4F42
:102320000895709561957F4F0895AA1BBB1B51E1DD
:1023300007C0AA1FBB1FA617B70710F0A61BB70B35
:10234000881F991F5A95A9F780959095BC01CD01DA
:102350000895EE0FFF1F0590F491E02D09940F935F
:102360001F93CF93DF938230910510F482E090E0C9
:10237000E0919C05F0919D0530E020E0B0E0A0E008
:10238000309799F42115310509F44AC0281B390BFF
:1023900024303105D8F58A819B816115710589F159
:1023A000FB0193838283FE0111C040815181028130
:1023B000138148175907E0F04817590799F4109707
:1023C00061F012960C93129713961C933296CF01DC
:1023D000DF91CF911F910F91089500939C05109369
:1023E0009D05F4CF2115310551F04217530738F000
:1023F000A901DB019A01BD01DF01F801C1CFEF01A5
:10240000F9CF90939D0580939C05CDCFFE01E20FFF
:10241000F31F819391932250310939832883D7CFB9
:1024200020919A0530919B05232B41F420910201C4
:102430003091030130939B0520939A052091000170
:10244000309101012115310541F42DB73EB740917E
:10245000040150910501241B350BE0919A05F09180
:102460009B05E217F307A0F42E1B3F0B2817390733
:1024700078F0AC014E5F5F4F2417350748F04E0FE0
:102480005F1F50939B0540939A05819391939FCF33
:10249000F0E0E0E09CCFCF93DF930097E9F0FC0100
:1024A000329713821282A0919C05B0919D05ED0197
:1024B00030E020E01097A1F420813181820F931F3A
:1024C00020919A0530919B052817390709F061C0C2
:1024D000F0939B05E0939A05DF91CF910895EA016F
:1024E000CE17DF07E8F54A815B819E014115510552
:1024F000B1F7E901FB83EA8349915991C40FD51FD4
:10250000EC17FD0761F4808191810296840F951F7D
:10251000E90199838883828193819B838A83F0E098
:10252000E0E012968D919C9113970097B9F52D914B
:102530003C911197CD010296820F931F20919A052D
:1025400030919B052817390739F6309751F51092CD
:102550009D0510929C05B0939B05A0939A05BCCF56
:10256000D383C28340815181840F951FC817D90737
:1025700061F44E5F5F4F88819981480F591F5183E5
:1025800040838A819B81938382832115310509F0E1
:10259000B0CFF0939D05E0939C059ECFFD01DC013B
:1025A000C0CF13821282D7CFB0E0A0E0EAEDF2E113
:1025B0000C949C138C01009751F4CB010E94AF1135
:1025C0008C01C801CDB7DEB7E0E10C94B813FC0173
:1025D000E60FF71F9C0122503109E217F30708F4B8
:1025E0009DC0D901CD91DC911197C617D70798F0FE
:1025F000C530D10530F3CE0104978617970708F34D
:10260000C61BD70B2297C193D1936D937C93CF01B7
:102610000E944B12D6CF5B01AC1ABD0A4C018C0E46
:102620009D1EA0919C05B0919D05512C412CF12C33
:10263000E12C109731F580919A0590919B058815B2
:10264000990509F05CC04616570608F058C08091FD
:10265000000190910101009741F48DB79EB7409120
:10266000040150910501841B950BE817F90708F048
:1026700055C0F0939B05E0939A05F901718360833F
:10268000A0CF8D919C91119712966C9012971396F2
:102690007C901397A815B90559F56C0142E0C40E5A
:1026A000D11CCA14DB0420F1AC014A195B09DA0120
:1026B0001296159780F06282738251834083D9010C
:1026C0006D937C93E114F10471F0D7011396FC93A0
:1026D000EE93129776CF22968C0F9D1FF90191836E
:1026E0008083F301EFCFF0939D05E0939C0569CFC4
:1026F0004816590608F42C017D01D3019ACFCB016D
:102700000E94AF117C01009749F0AE01B8010E9410
:102710009113C8010E944B12870153CF10E000E0D3
:1027200050CFFB01DC0102C001900D92415050409E
:10273000D8F708952F923F924F925F926F927F92B7
:102740008F929F92AF92BF92CF92DF92EF92FF92C1
:102750000F931F93CF93DF93CDB7DEB7CA1BDB0B6D
:102760000FB6F894DEBF0FBECDBF09942A88398812
:1027700048885F846E847D848C849B84AA84B98419
:10278000C884DF80EE80FD800C811B81AA81B98125
:10279000CE0FD11D0FB6F894DEBF0FBECDBFED0139
:0627A0000895F894FFCF3C
:1027A60000009E05800000000000E20C1F051C05CD
:1027B600190500000000B20480068506B00400007A
:1027C60000005C0616061306100600000000B20C98
:1027D600C304C004BD0400000000D00130015D0147
:1027E6001D028E016C01800100000000CF0B8F06D8
:1027F600BA04B70400000000C9021208BA020000B9
:10280600000064044104C202BF020000000050043C
:10281600C502C202BF024D657373616765206672A9
:102826006F6D206465766963652064726F7070658C
:10283600643A206D657373616765206C61726765C4
:1028460072207468616E206275666665722E004637
:102856006C6173682072656164206E6F7420696DA7
:10286600706C00427566666572206F766572666C7E
:0E2876006F772070756200736572766F0000D8
:00000001FF
